:020000040800F2
:1000000000000220A52B0008052300080723000894
:10001000092300080B2300080D230008000000003E
:1000200000000000000000000000000061690008FE
:100030000F23000800000000016A0008A166000804
:10004000F52B0008F52B0008F52B0008F52B000810
:10005000F52B0008F52B0008F52B0008F52B000800
:10006000F52B0008F52B0008F52B000811230008DC
:1000700021230008312300084123000851230008F0
:100080006123000871230008F52B0008F52B0008F8
:10009000F52B00088123000891230008F52B0008A8
:1000A000F52B0008F52B0008F52B0008F52B0008B0
:1000B000F52B0008A1230008B1230008F52B000848
:1000C000F52B0008F52B0008F52B0008F52B000890
:1000D000F52B0008C1230008D1230008E9230008FC
:1000E000F52B0008F52B0008F52B0008F52B000870
:1000F000F52B0008F52B0008F52B0008F52B000860
:10010000F52B0008F52B0008F52B0008F52B00084F
:10011000F923000809240008F52B0008F52B000836
:10012000F52B0008F52B0008F52B0008F52B00082F
:10013000F52B0008F52B0008F52B0008F52B00081F
:10014000F52B0008F52B0008F52B0008F52B00080F
:10015000F52B0008F52B0008F52B0008F52B0008FF
:10016000F52B0008F52B0008F52B0008F52B0008EF
:10017000F52B0008F52B0008F52B0008F52B0008DF
:10018000F52B0008F52B0008F52B0008F52B0008CF
:10019000F52B000800000000F52B0008F52B0008E7
:1001A000F52B0008F52B0008F52B0008F52B0008AF
:1001B000F52B0008F52B0008F52B0008F52B00089F
:1001C000F52B0008F52B0008F52B0008F52B00088F
:0801D000F52B0008F52B0008D7
:1002000081F0004102E000BF83F0004330B54FEAC7
:1002100041044FEA430594EA050F08BF90EA020F34
:100220001FBF54EA000C55EA020C7FEA645C7FEAC7
:10023000655C00F0E2804FEA5454D4EB5555B8BFEA
:100240006D420CDD2C4480EA020281EA030382EA5B
:10025000000083EA010180EA020281EA0303362DED
:1002600088BF30BD11F0004F4FEA01314FF4801CC0
:100270004CEA113102D0404261EB410113F0004FD2
:100280004FEA03334CEA133302D0524263EB430389
:1002900094EA050F00F0A780A4F10104D5F1200E27
:1002A0000DDB02FA0EFC22FA05F2801841F1000182
:1002B00003FA0EF2801843FA05F359410EE0A5F156
:1002C00020050EF1200E012A03FA0EFC28BF4CF087
:1002D000020C43FA05F3C01851EBE37101F000453D
:1002E00007D54FF0000EDCF1000C7EEB00006EEB4A
:1002F0000101B1F5801F1BD3B1F5001F0CD34908D4
:100300005FEA30004FEA3C0C04F101044FEA44522A
:1003100012F5800F80F09A80BCF1004F08BF5FEAB1
:10032000500C50F1000041EB045141EA050130BD91
:100330005FEA4C0C404141EB0101013C28BFB1F5A3
:10034000801FE9D291F0000F04BF01460020B1FAEE
:1003500081F308BF2033A3F10B03B3F120020CDAC1
:100360000C3208DD02F1140CC2F10C0201FA0CF09F
:1003700021FA02F10CE002F11402D8BFC2F1200C04
:1003800001FA02F120FA0CFCDCBF41EA0C019040BA
:10039000E41AA2BF01EB0451294330BD6FEA040403
:1003A0001F3C1CDA0C340EDC04F11404C4F12002EE
:1003B00020FA04F001FA02F340EA030021FA04F300
:1003C00045EA030130BDC4F10C04C4F1200220FA57
:1003D00002F001FA04F340EA0300294630BD21FA95
:1003E00004F0294630BD94F0000F83F4801306BF5B
:1003F00081F480110134013D4EE77FEA645C18BF4F
:100400007FEA655C29D094EA050F08BF90EA020FE5
:1004100005D054EA000C04BF1946104630BD91EADD
:10042000030F1EBF0021002030BD5FEA545C05D1E0
:100430004000494128BF41F0004130BD14F580041F
:100440003CBF01F5801130BD01F0004545F0FE4193
:1004500041F470014FF0000030BD7FEA645C1ABFC8
:10046000194610467FEA655C1CBF0B46024650EAFF
:10047000013406BF52EA033591EA030F41F400212B
:1004800030BD00BF90F0000F04BF0021704730B5B1
:100490004FF4806404F132044FF000054FF0000186
:1004A00050E700BF90F0000F04BF0021704730B547
:1004B0004FF4806404F1320410F0004548BF40421C
:1004C0004FF000013EE700BF42004FEAE2014FEA71
:1004D00031014FEA02701FBF12F07F4393F07F4F4C
:1004E00081F06051704732F07F4208BF704793F04F
:1004F0007F4F04BF41F40021704730B54FF4607462
:1005000001F0004521F000411CE700BF50EA010264
:1005100008BF704730B54FF000050AE050EA01020D
:1005200008BF704730B511F0004502D5404261EB7D
:1005300041014FF4806404F132045FEA915C3FF4BE
:10054000D8AE4FF003025FEADC0C18BF03325FEA5B
:10055000DC0C18BF033202EBDC02C2F1200300FA0C
:1005600003FC20FA02F001FA03FE40EA0E0021FA31
:1005700002F11444BDE600BF70B54FF0FF0C4CF41F
:10058000E06C1CEA11541DBF1CEA135594EA0C0FD1
:1005900095EA0C0F00F0DEF82C4481EA030621EA0C
:1005A0004C5123EA4C5350EA013518BF52EA033547
:1005B00041F4801143F4801338D0A0FB02CE4FF0F9
:1005C0000005E1FB02E506F00042E0FB03E54FF029
:1005D0000006E1FB03569CF0000F18BF4EF0010E21
:1005E000A4F1FF04B6F5007F64F5407404D25FEA1D
:1005F0004E0E6D4146EB060642EAC62141EA5551D0
:100600004FEAC52040EA5E504FEACE2EB4F1FD0C11
:1006100088BFBCF5E06F1ED8BEF1004F08BF5FEA8F
:10062000500E50F1000041EB045170BD06F0004641
:1006300046EA010140EA020081EA0301B4EB5C04EE
:10064000C2BFD4EB0C0541EA045170BD41F48011E6
:100650004FF0000E013C00F3AB8014F1360FDEBF0B
:10066000002001F0004170BDC4F10004203C35DAE7
:100670000C341BDC04F11404C4F1200500FA05F36A
:1006800020FA04F001FA05F240EA020001F000420B
:1006900021F0004110EBD37021FA04F642EB060181
:1006A0005EEA430E08BF20EAD37070BDC4F10C04AB
:1006B000C4F1200500FA04F320FA05F001FA04F26F
:1006C00040EA020001F0004110EBD37041F100015B
:1006D0005EEA430E08BF20EAD37070BDC4F1200566
:1006E00000FA05F24EEA020E20FA04F301FA05F2CE
:1006F00043EA020321FA04F001F0004121FA04F276
:1007000020EA020000EBD3705EEA430E08BF20EA45
:10071000D37070BD94F0000F0FD101F0004640007F
:1007200041EB010111F4801F08BF013CF7D041EA01
:10073000060195F0000F18BF704703F00046520005
:1007400043EB030313F4801F08BF013DF7D043EAD6
:100750000603704794EA0C0F0CEA135518BF95EA8C
:100760000C0F0CD050EA410618BF52EA4306D1D113
:1007700081EA030101F000414FF0000070BD50EA32
:10078000410606BF1046194652EA430619D094EABC
:100790000C0F02D150EA013613D195EA0C0F05D1A6
:1007A00052EA03361CBF104619460AD181EA0301FA
:1007B00001F0004141F0FE4141F470014FF00000B2
:1007C00070BD41F0FE4141F4780170BD70B54FF04D
:1007D000FF0C4CF4E06C1CEA11541DBF1CEA1355CD
:1007E00094EA0C0F95EA0C0F00F0A7F8A4EB0504AF
:1007F00081EA030E52EA03354FEA013100F08880A6
:100800004FEA03334FF0805545EA131343EA12636E
:100810004FEA022245EA111545EA10654FEA002623
:100820000EF000419D4208BF964244F1FD0404F5DC
:10083000407402D25B084FEA3202B61A65EB030538
:100840005B084FEA32024FF480104FF4002CB6EBF5
:10085000020E75EB030E22BFB61A754640EA0C0075
:100860005B084FEA3202B6EB020E75EB030E22BFB5
:10087000B61A754640EA5C005B084FEA3202B6EBF6
:10088000020E75EB030E22BFB61A754640EA9C00B5
:100890005B084FEA3202B6EB020E75EB030E22BF85
:1008A000B61A754640EADC0055EA060E18D04FEA43
:1008B000051545EA16754FEA06164FEAC30343EAE3
:1008C00052734FEAC2025FEA1C1CC0D111F4801FB0
:1008D0000BD141EA00014FF000004FF0004CB6E7A9
:1008E00011F4801F04BF01430020B4F1FD0C88BF48
:1008F000BCF5E06F3FF6AFAEB5EB030C04BFB6EB53
:10090000020C5FEA500C50F1000041EB045170BD45
:100910000EF0004E4EEA113114EB5C04C2BFD4EB72
:100920000C0541EA045170BD41F480114FF0000EF6
:10093000013C90E645EA060E8DE60CEA135594EA72
:100940000C0F08BF95EA0C0F3FF43BAF94EA0C0F75
:100950000AD150EA01347FF434AF95EA0C0F7FF4EA
:1009600025AF104619462CE795EA0C0F06D152EA3E
:1009700003353FF4FDAE1046194622E750EA410622
:1009800018BF52EA43067FF4C5AE50EA41047FF433
:100990000DAF52EA43057FF4EBAE12E74FF0FF3C98
:1009A00006E000BF4FF0010C02E000BF4FF0010C69
:1009B0004DF804CD4FEA410C7FEA6C5C4FEA430CE2
:1009C00018BF7FEA6C5C1BD001B050EA410C0CBF31
:1009D00052EA430C91EA030F02BF90EA020F002093
:1009E000704710F1000F91EA030F58BF994208BFFA
:1009F00090422CBFD8176FEAE37040F001007047B7
:100A00004FEA410C7FEA6C5C02D150EA013C07D10D
:100A10004FEA430C7FEA6C5CD6D152EA033CD3D058
:100A20005DF8040B704700BF8446104662468C4652
:100A30001946634600E000BF01B5FFF7B7FF002885
:100A400048BF10F1000F01BD4DF808EDFFF7F4FFAE
:100A50000CBF012000205DF808FB00BF4DF808ED39
:100A6000FFF7EAFF34BF012000205DF808FB00BF5C
:100A70004DF808EDFFF7E0FF94BF012000205DF87E
:100A800008FB00BF4DF808EDFFF7CEFF94BF012033
:100A900000205DF808FB00BF4DF808EDFFF7C4FF2C
:100AA00034BF012000205DF808FB00BF4A0011D2CE
:100AB00012F5001211D20DD56FF47873B3EB6252B8
:100AC0000ED44FEAC12343F0004343EA505323FAC4
:100AD00002F070474FF00000704750EA013002D139
:100AE0004FF0FF3070474FF0000070474FEA41026F
:100AF000B2F1E04324BFB3F5001CDCF1FE5C0DD97C
:100B000001F0004C4FEAC0024CEA5070B2F1004FC5
:100B100040EB830008BF20F00100704711F0804FC8
:100B200021D113F13872BCBF01F00040704741F48D
:100B300080114FEA5252C2F11802C2F1200C10FA91
:100B40000CF320FA02F018BF40F001004FEAC12375
:100B50004FEAD32303FA0CFC40EA0C0023FA02F319
:100B60004FEA4303CCE77FEA625307D150EA0133EF
:100B70001EBF4FF0FE4040F44000704701F00040BF
:100B800040F0FE4040F40000704700BF53B94AB93E
:100B9000002908BF00281CBF4FF0FF314FF0FF3085
:100BA00000F074B9ADF1080C6DE904CE00F006F860
:100BB000DDF804E0DDE9022304B070472DE9F047D9
:100BC000089D04468E46002B4DD18A42944669D931
:100BD000B2FA82F252B101FA02F3C2F1200120FA14
:100BE00001F10CFA02FC41EA030E94404FEA1C4862
:100BF000210CBEFBF8F61FFA8CF708FB16E341EA5E
:100C0000034306FB07F199420AD91CEB030306F1E3
:100C1000FF3080F01F81994240F21C81023E634404
:100C20005B1AA4B2B3FBF8F008FB103344EA0344A8
:100C300000FB07F7A7420AD91CEB040400F1FF33BD
:100C400080F00A81A74240F207816444023840EAFA
:100C50000640E41B00261DB1D4400023C5E9004333
:100C60003146BDE8F0878B4209D9002D00F0EF80B6
:100C70000026C5E9000130463146BDE8F087B3FAE9
:100C800083F6002E4AD18B4202D3824200F2F980D1
:100C9000841A61EB030301209E46002DE0D0C5E9D4
:100CA000004EDDE702B9FFDEB2FA82F2002A40F020
:100CB0009280A1EB0C014FEA1C471FFA8CFE012623
:100CC000200CB1FBF7F307FB131140EA01410EFBC7
:100CD00003F0884208D91CEB010103F1FF3802D26E
:100CE000884200F2CB804346091AA4B2B1FBF7F068
:100CF00007FB101144EA01440EFB00FEA64508D98B
:100D00001CEB040400F1FF3102D2A64500F2BB80C7
:100D10000846A4EB0E0440EA03409CE7C6F1200716
:100D2000B34022FA07FC4CEA030C20FA07F401FA5C
:100D300006F31C43F9404FEA1C4900FA06F3B1FBE5
:100D4000F9F8200C1FFA8CFE09FB181140EA01414A
:100D500008FB0EF0884202FA06F20BD91CEB0101E7
:100D600008F1FF3A80F08880884240F28580A8F13F
:100D700002086144091AA4B2B1FBF9F009FB101191
:100D800044EA014100FB0EFE8E4508D91CEB01012F
:100D900000F1FF346CD28E456AD90238614440EAD2
:100DA0000840A0FB0294A1EB0E01A142C846A64652
:100DB00056D353D05DB1B3EB080261EB0E0101FADB
:100DC00007F722FA06F3F1401F43C5E90071002638
:100DD0003146BDE8F087C2F12003D8400CFA02FC8E
:100DE00021FA03F3914001434FEA1C471FFA8CFE9E
:100DF000B3FBF7F007FB10360B0C43EA064300FB8E
:100E00000EF69E4204FA02F408D91CEB030300F12B
:100E1000FF382FD29E422DD9023863449B1B89B2E2
:100E2000B3FBF7F607FB163341EA034106FB0EF36B
:100E30008B4208D91CEB010106F1FF3816D28B4218
:100E400014D9023E6144C91A46EA004638E72E46E4
:100E5000284605E70646E3E61846F8E64B45A9D2DC
:100E6000B9EB020864EB0C0E0138A3E74646EAE74B
:100E7000204694E74046D1E7D0467BE7023B6144F9
:100E800032E7304609E76444023842E7704700BF62
:100E9000844641EA000313F003036DD1403A41D385
:100EA00051F8043B40F8043B51F8043B40F8043B44
:100EB00051F8043B40F8043B51F8043B40F8043B34
:100EC00051F8043B40F8043B51F8043B40F8043B24
:100ED00051F8043B40F8043B51F8043B40F8043B14
:100EE00051F8043B40F8043B51F8043B40F8043B04
:100EF00051F8043B40F8043B51F8043B40F8043BF4
:100F000051F8043B40F8043B51F8043B40F8043BE3
:100F100051F8043B40F8043B51F8043B40F8043BD3
:100F2000403ABDD2303211D351F8043B40F8043B73
:100F300051F8043B40F8043B51F8043B40F8043BB3
:100F400051F8043B40F8043B103AEDD20C3205D383
:100F500051F8043B40F8043B043AF9D2043208D07B
:100F6000D2071CBF11F8013B00F8013B01D30B88ED
:100F700003806046704700BF082A13D38B078DD0CB
:100F800010F003038AD0C3F10403D21ADB071CBF9D
:100F900011F8013B00F8013B80D331F8023B20F807
:100FA000023B7BE7043AD9D3013A11F8013B00F840
:100FB000013BF9D20B7803704B7843708B788370C8
:100FC00060467047000000000000000000000000C4
:100FD0000000000000000000000000000000000011
:100FE0000000000000000000000000000000000001
:100FF00000000000000000000000000000000000F1
:1010000090F800F06DE9024520F007016FF0000C48
:1010100010F0070491F820F040F049804FF00004F0
:101020006FF00700D1E9002391F840F000F10800CB
:1010300082FA4CF2A4FA8CF283FA4CF3A2FA8CF303
:101040004BBBD1E9022382FA4CF200F10800A4FA6A
:101050008CF283FA4CF3A2FA8CF3E3B9D1E90423BE
:1010600082FA4CF200F10800A4FA8CF283FA4CF3F5
:10107000A2FA8CF37BB9D1E9062301F1200182FAAF
:101080004CF200F10800A4FA8CF283FA4CF3A2FAB5
:101090008CF3002BC6D0002A04BF04301A4612BAC3
:1010A000B2FA82F2FDE8024500EBD2007047D1E9C6
:1010B000002304F00305C4F100004FEAC50514F055
:1010C000040F91F840F00CFA05F562EA05021CBF26
:1010D00063EA050362464FF00004A9E70000000040
:1010E00001F0FF01102A2BDB10F0070F08D010F8D9
:1010F000013B013A8B422DD010F0070F42B3F6D1DD
:10110000F0B441EA012141EA014122F007047FF0F5
:1011100000070023F0E80256083C85EA010586EA4C
:10112000010685FA47F5A3FA87F586FA47F6A5FA88
:1011300087F68EB9EED1F0BC01F0FF0102F0070294
:1011400032B110F8013B013A83EA010313B1F8D13F
:101150000020704701387047002D06BF3546033820
:10116000073815F0010F07D1013015F4807F02BF59
:10117000013015F4C03F0130F0BC0138704700BFAA
:101180004FEA410C7FEA6C5C02D150EA013C0AD183
:101190004FEA430C7FEA6C5C02D152EA033C02D175
:1011A0004FF0000070474FF0010070474FEA4102D6
:1011B00012F5001215D211D56FF47873B3EB6252A9
:1011C00012D94FEAC12343F0004343EA505311F0D0
:1011D000004F23FA02F018BF404270474FF0000062
:1011E000704750EA013005D111F0004008BF6FF0A0
:1011F000004070474FF00000704700BF38B5002234
:10120000002304460D46FFF729FC28B9204629464D
:10121000BDE8384000F00AB8204605F1004100F072
:1012200005F8404261EB410138BD00BFD0B50C4B21
:10123000002206460F46FFF79FF9FFF737FC0446EA
:10124000FFF720F9074B0022FFF796F902460B46FD
:1012500030463946FEF7D8FFFFF728FC2146D0BDBF
:101260000000F03D0000F041214B93ED017A83ED49
:10127000007A204BD3ED057A1F4BD3ED096A77EE48
:10128000E67AF0EEE77AF0EE086AF4EEE67AF1EE4E
:1012900010FA1FD8174BD3ED047A154BC3ED017A22
:1012A00037EEC77ADFED156AB4EEE67AF1EE10FAA2
:1012B00011D51A469B68013393600D4B93ED027A6A
:1012C000B8EEC77ADFED0E6A27EE267A77EE877AD8
:1012D000C3ED037A7047DFED0B6AB4EEE67AF1EE08
:1012E00010FAEADD024A9368013B9360E5E700BF2C
:1012F000D4920020A8910020D4910020000034C393
:101300000000B443000034432DE9F04F2DED028B73
:1013100083B010EE109A10EE904A11EE108A7C4BBA
:101320001868FFF7D1F841EC180B41EC100B11F0E5
:101330008BFC56EC105B4846FFF7C6F8CDE900562B
:101340002A463346FFF718F982468B462046FFF7B8
:10135000BBF806460F46B0EE480AF0EE680A11F0F8
:10136000BBFC55EC104B10EE102A2B46304639468C
:10137000FFF702F902460B4650465946FEF746FF74
:1013800082468B4689F00040FFF79EF802460B46E6
:1013900020462946FFF7F0F804460D4632463B4604
:1013A000DDE90001FFF7E8F802460B462046294632
:1013B000FEF72CFF06460F464046FFF785F84CA384
:1013C000D3E90023FFF7D8F804460D464AA3D3E932
:1013D000002350465946FFF7CFF88046894646A37A
:1013E000D3E9002330463946FFF7C6F806460F46D4
:1013F00002460B4640464946FEF708FF02460B46AA
:1014000020462946FEF702FF01F100413CA3D3E943
:101410000023FFF7DBF93CA3D3E90023FFF7D6F95C
:10142000FFF764FB3B4B186050460BF1004132A3C1
:10143000D3E90023FFF7A0F882468B4602460B460D
:1014400030463946FEF7E2FE02460B462046294664
:10145000FEF7DCFE01F1004129A3D3E90023FFF7E9
:10146000B5F929A3D3E90023FFF7B0F9FFF73EFB55
:10147000294B186032463B4650465946FEF7C4FE9B
:1014800002460B4620462946FEF7C0FE01F1004108
:101490001BA3D3E90023FFF799F91BA3D3E900238A
:1014A000FFF794F9FFF722FB1C4B186032463B46CE
:1014B00040464946FEF7A8FE02460B46204629460E
:1014C000FEF7A4FE01F100410DA3D3E90023FFF7CD
:1014D0007DF90DA3D3E90023FFF778F9FFF706FBA9
:1014E0000F4B186003B0BDEC028BBDE8F08F00BF5E
:1014F000931804560E2DC23F5C40956B9EA0E63FAC
:10150000A4D5CFEBE9CEBA3FCBA145B6F3FDA43FBE
:10151000D80900207C0B0020800B0020840B0020C9
:10152000880B0020034B83ED000AC3ED010A83ED15
:10153000021A7047DC09002010B584B0BDF918E02C
:101540009DF820C01CF0110F04D00C128DF808403B
:101550008DF809101CF0220F04D011128DF80A101A
:101560008DF80B201CF0440F04D01A128DF80C20BB
:101570008DF80D301CF0080F02D11CF0800F05D043
:101580004FEA2E238DF80E308DF80FE008230093DC
:101590006B440022BDF81C1000F040F804B010BDF0
:1015A00010B5044601F045FF2268536D43F0010376
:1015B00053652268536D43F00203536500220121F5
:1015C000204602F029F800220821204602F024F8E3
:1015D00010BD2DE9F04186B005460F4616464FF086
:1015E000804200924FF00108CDF80480002402945C
:1015F0000222039204930C9B0593694601F0E6FED8
:10160000009401940294CDF80C80049705966946E5
:10161000284601F0DBFE06B0BDE8F08110B58AB0C7
:101620008AB901910292002103919DF83020049221
:10163000059106910791089109911A4601A901F0B7
:101640000FFF0AB010BD0029EDD101924FF080428A
:101650000292E8E7F0B5059F069E079D089C4FF0B3
:10166000000CC0F80CC0C0F814C0DFED4C6AC0ED2F
:10167000066A9FED4B7A80ED087AC0F810C0C0F87A
:101680001CC0DFF84CE1C0F800E0DFED467AC0EDA9
:10169000017AC0F808C0DFF83CE1C0F824E0C1F8E6
:1016A0000CC0C1F814C0C1ED066A81ED087AC1F81A
:1016B00010C0C1F81CC03C480860C1ED017AC1F8F7
:1016C00008C0C1F824E0C2F80CC0C2F814C0374901
:1016D00091611162C2F810C0C2F81CC03448106099
:1016E000C2F804C03348906033485062C3F80CC05D
:1016F000C3F814C099611962C3F810C0C3F81CC0C4
:10170000C3F800C0C3F804C0C3F808C05862C7F8E3
:101710000CC0C7F814C0B9613962C7F810C0C7F867
:101720001CC0264B3B60C7F804C0254BBB604FF084
:101730007C527A62C6F80CC0C6F814C0B16131623E
:10174000C6F810C0C6F81CC01E4A3260C6F804C0F5
:10175000C6F808C07062C5F80CC0C5F814C0A9610D
:10176000194E2E62C5F810C0C5F81CC01748286075
:10177000C5F804C0AB604FF07E526A62C4F80CC07A
:10178000C4F814C0A1612662C4F810C0C4F81CC01B
:101790002060C4F804C0A3606262F0BD00007A4417
:1017A00000007A462506813D0000484300001644AB
:1017B000500D4B420000A0406F12833A0AD7A33C61
:1017C00000004040000020410000C842006F013C82
:1017D0000000FA42CDCC4C3D70EE600AC0ED030A29
:1017E000D0ED097AF4EEE70AF1EE10FA08D5F1EE41
:1017F000677AF4EEE70AF1EE10FA01DD0023C36028
:1018000090ED036A90ED057A36EE077A80ED057A61
:10181000D0ED016A27EE267AD0ED067AF1EE675A0E
:10182000B4EEE57AF1EE10FA39D5C5EEA67AC0ED40
:10183000057AD0ED007A66EE277A90ED057A66EEAD
:10184000876A77EEA67A90ED027AD0ED046A76EE9A
:10185000666A27EE267A77EE877AC0ED077A90EDF2
:10186000087AF4EEC77AF1EE10FA01DD80ED077A1E
:10187000D0ED077AB1EE477AF4EEC77AF1EE10FABE
:1018800001D580ED077A80ED046AB5EE400AF1EEED
:1018900010FA01D10023C36190ED070A7047B4EE3E
:1018A000E77AF1EE10FAC4DD87EEA67A80ED057ACC
:1018B000BFE770EE600AC0ED030AD0ED097AF4EEDE
:1018C000E70AF1EE10FA08D5F1EE677AF4EEE70ACE
:1018D000F1EE10FA01DD0023C36090ED036A90ED94
:1018E000057A36EE077A80ED057AD0ED016A27EEAB
:1018F000267AD0ED067AF1EE675AB4EEE57AF1EE8B
:1019000010FA32D5C5EEA67AC0ED057AD0ED007A90
:1019100066EE277A90ED057A66EE876A77EEA67A0C
:1019200090ED027AD0ED046A76EE666A27EE267AAA
:1019300077EE877AC0ED077A90ED087AF4EEC77AF1
:10194000F1EE10FA01DD80ED077AD0ED077AB1EE05
:10195000477AF4EEC77AF1EE10FA01D580ED077AF6
:1019600080ED046A90ED070A7047B4EEE77AF1EE75
:1019700010FACBDD87EEA67A80ED057AC6E72DE971
:10198000F04F83B051EC100B57EC116B8DED002B29
:1019900055EC134B59EC148B11EE102A3B46FEF715
:1019A00033FC82468B4622462B4640464946FEF78C
:1019B0002BFC02460B4650465946FEF7DDFD80469D
:1019C000894632463B46DDE90001FEF71DFC024632
:1019D0000B4640464946FEF7F9FE22462B46FEF7E7
:1019E00015FC41EC100B03B0BDE8F08F10B586B0CC
:1019F00000231A4603E021290AD00133DBB2C72BAA
:101A000020D81B49C95C3D29F5D15A1CD2B2F2E756
:101A1000013BDBB21649895C2D2915D00024002139
:101A2000934215D3122913D81148805C80B101F17B
:101A3000010C1831694401F8140C0132D2B25FFA7A
:101A40008CF1EDE70023E5E70132D2B20124E6E7AD
:101A500001F118036B44002103F8141C01A808F0DD
:101A6000F3FC0CB906B010BDB1EE400AFAE700BFB6
:101A70000492002010B50446FFF7B8FF012C00D0F7
:101A800010BD2B4B1B78502B19D0492B1FD0442B4A
:101A900025D0502B2BD0492B31D0442B37D0532B72
:101AA0003DD0502BECD1224B5B786F2BE8D1204BF3
:101AB0009B78732BE4D11F4B83ED020AE0E71C4AAD
:101AC0005278312AE1D11C4B83ED000AD8E7184A3D
:101AD0005278312ADBD1184B83ED010AD0E7144A42
:101AE0005278312AD5D1144B83ED020AC8E7104A47
:101AF0005278322ACFD1114B83ED000AC0E70C4A4D
:101B00005278322AC9D10D4B83ED010AB8E7084A51
:101B10005278322AC3D1094B83ED020AB0E7044A56
:101B20005278702ABDD1024A9278652AB9D1A7E7C6
:101B300004920020DC0900203C0A0020540B002005
:101B400008B5012004F045FEFBE700B583B005F0C1
:101B500095FF0190FFF788FB052101A806F09CF88E
:101B6000F5E7000000B585B005F088FF0390074B4E
:101B700003F1100292E803008DE803000FCB07F099
:101B800017FA0A2103A806F087F8EDE7DC09002020
:101B900008B5642006F0D2F8FBE7000080B586B0F7
:101BA00005F06CFF0590404BB3F90600FEF77AFC98
:101BB00000223E4BFEF70AFEFEF798FF3C4C00EE7B
:101BC000900A3C4B93ED000A2046FFF705FE3A4D84
:101BD00085ED000A394BB3F90600FEF763FC0022DD
:101BE000324BFEF7F3FDFEF781FF00EE900A344B17
:101BF00093ED000A2046FFF7EFFD324E86ED000A16
:101C0000314BB3F90600FEF74DFC0022274BFEF7DF
:101C1000DDFDFEF76BFF00EE900A2C4B93ED000A02
:101C20002046FFF7D9FD2A4F87ED000A294BB3F96B
:101C30000600FEF737FC00221C4BFEF7C7FDFEF73F
:101C400055FF00EE900A244B93ED000A2046FFF763
:101C5000C3FD224B83ED000AD7ED006AFDEEE66A74
:101C600096ED007ABDEEC77AD5ED007AFDEEE77A03
:101C70000F2302934FF400730193BDEEC00A10EEE0
:101C8000103A1BB2009316EE903A1BB217EE102AD0
:101C900012B217EE901A09B21148FFF74DFC052158
:101CA00005A805F0F9FF7BE70C0A00200000424080
:101CB0002C0B00208C0B0020C8090020180A0020E3
:101CC000900B0020CC090020240A0020940B002057
:101CD000D0090020300A0020980B0020D4090020F1
:101CE000B80B002080B58EB005F0C8FE0D901C4BDF
:101CF0001C4A16685F68D2F80480D3F80890D2F8BE
:101D000024A01868FEF7E0FB04460D46164B186841
:101D1000FEF7DAFBCDE90A015046FEF7D5FBCDE927
:101D200008014846FEF7D0FBCDE906014046FEF724
:101D3000CBFBCDE904013846FEF7C6FBCDE9020135
:101D40003046FEF7C1FBCDE9000122462B460121BA
:101D5000064806F0ADFE32210DA805F09DFFC3E751
:101D6000DC090020D4910020D80900207845010822
:101D700008B503220021012005F0B7F9164B1860C1
:101D8000164A0021164804F0C5FC164B1860164A86
:101D90000021164804F0BEFC154B1860154A0021BE
:101DA000154804F0B7FC154B1860154A002115487A
:101DB00004F0B0FC144B1860144A0021144804F0DD
:101DC000A9FC144B1860144A0021144804F0A2FC2A
:101DD000134B186008BD00BFB40B0020B0460108CB
:101DE000411B0008B00B0020FC4501084B1B0008FC
:101DF0009C0B002044460108651B0008A40B002032
:101E000068460108911B0008A80B00202046010825
:101E10009D1B0008A00B00208C460108E51C000853
:101E2000AC0B002000B583B0264B9A6C42F0040244
:101E30009A649A6C02F004020092009A9A6C42F042
:101E400001029A649B6C03F001030193019B002241
:101E500005210B2000F016FF0B2000F04BFF0022A5
:101E600005210C2000F00EFF0C2000F043FF0022A3
:101E700005210D2000F006FF0D2000F03BFF0022A1
:101E800005210E2000F0FEFE0E2000F033FF0022A0
:101E900005210F2000F0F6FE0F2000F02BFF00229E
:101EA0000521102000F0EEFE102000F023FF00229C
:101EB0000521112000F0E6FE112000F01BFF03B009
:101EC0005DF804FB0010024038B51048104B036069
:101ED000002343608360C3600374437483741125DB
:101EE0004561012484610621C161032202624562C9
:101EF0008462C1620263082242638263C36301F0A9
:101F00007BF900B938BD00F0BFF8FBE7B80B002043
:101F10000064004010B59CB0044600211791189150
:101F200019911A911B91542202A807F0E5F8226832
:101F3000224B9A4201D01CB010BD4FF48053029343
:101F40004FF00073109302A802F05AFA002832D121
:101F50001B4B9A6D42F000729A659A6D02F0007206
:101F60000092009ADA6C42F00102DA64DB6C03F052
:101F700001030193019B4FF4C0531793022318935D
:101F8000002419941A9409231B9317A94FF0904029
:101F900001F092FC22460521152000F073FE152069
:101FA00000F0A8FE22460521162000F06BFE162048
:101FB00000F0A0FEBFE700F067F8C9E7006400404A
:101FC0000010024030B58DB00024079408940994A5
:101FD0000A940B94294BDA6C42F01002DA64DA6C42
:101FE00002F010020192019ADA6C42F00402DA6403
:101FF000DA6C02F004020292029ADA6C42F02002D9
:10200000DA64DA6C02F020020392039ADA6C42F08E
:102010000102DA64DA6C02F001020492049ADA6CCA
:1020200042F00202DA64DA6C02F002020592059ACA
:10203000DA6C42F00802DA64DB6C03F00803069302
:10204000069B0F4D22461821284601F01FFD18233C
:10205000079301230893099402230A9307A92846AA
:1020600001F02AFC4FF4005307930894099407A940
:10207000044801F021FC0DB030BD00BF001002404B
:10208000001000480008004872B6FEE700B595B0A1
:102090003822002106A807F02FF8002001900290B6
:1020A00003900490059001F0F7FC012306934FF490
:1020B0008033079302230D9303220E920C220F927A
:1020C0005522109211931293139306A801F09EFDCE
:1020D00080B90F23019303230293002303930493F6
:1020E000059304210DEB010002F046F820B915B06C
:1020F0005DF804FBFFF7C8FFFFF7C6FF08B500F067
:102100007AFDFFF7C3FFFFF75DFFFFF78BFEFFF7D9
:10211000DBFE00F0EDFA00F0C1F900F0B5FA00F0D6
:102120007FFA00F015FA00F047FA00F027F8C8200F
:1021300000F082FD0F4C204606F0BAFC204606F067
:10214000B7FC204606F0B4FCC82000F075FD06F090
:1021500039FC06F0B8F904F0AFFAFFF709FE04F015
:10216000BDFA054807F07CF84FF4FA7000F064FD02
:10217000F7E700BFD4460108D846010808B5104863
:10218000104B03604FF482734360002383604FF46D
:10219000E062C260036143614FF400728261182201
:1021A000C2610362436283620722C262036308233F
:1021B000436302F0E1FA00B908BDFFF765FFFBE7F2
:1021C0001C0C0020003C014000B589B000230393A3
:1021D00004930593069307930268124B9A4202D028
:1021E00009B05DF804FB03F554431A6E42F4004253
:1021F0001A661A6E02F400420192019ADA6C42F0F9
:102200001002DA64DB6C03F010030293029B642378
:102210000393022304930523079303A9024801F0C3
:102220004BFBDDE7003C01400010004800B583B0E7
:102230000E4B1A6E42F001021A661A6E02F001028B
:102240000092009A9A6D42F080529A659B6D03F05D
:1022500080530193019B00220F216FF0010000F0D9
:1022600011FD01F09FFC03B05DF804FB001002407B
:1022700030B589B004461E4B9A6D42F004029A654F
:102280009B6D03F004030193019B02A903A802F0D4
:1022900099F802F073F803461648A0FB03239B0C41
:1022A000013B1548154A026040F2E732C2604360C4
:1022B00000230361836002F0C1FC054610B128468B
:1022C00009B030BD0C4802F0FDFA05460028F6D1F1
:1022D0001E2000F00FFD0F2C01D90125EFE7002291
:1022E00021461E2000F0CEFC054B1C60E7E700BF36
:1022F0000010024083DE1B43800C002000080040D9
:102300000C000020FEE7FEE7FEE7FEE7FEE7704771
:1023100008B5024800F081FE08BD00BF3C0E002059
:1023200008B5024800F079FE08BD00BF9C0E0020F1
:1023300008B5024800F071FE08BD00BFFC0E002089
:1023400008B5024800F069FE08BD00BF5C0F002020
:1023500008B5024800F061FE08BD00BF1C0D00205A
:1023600008B5024800F059FE08BD00BF7C0D0020F2
:1023700008B5024800F051FE08BD00BFDC0D00208A
:1023800008B5024801F0D4F908BD00BFB80B002021
:1023900008B5024801F0CCF908BD00BFB80B002019
:1023A00008B5024802F0DCFA08BD00BFD00C0020DE
:1023B00008B5024802F0D4FA08BD00BF800C002026
:1023C00008B5024802F0E2FE08BD00BFBC0F0020C5
:1023D00010B5044C204602F0D9FE204606F090FCD1
:1023E00010BD00BF5010002008B5024802F0CEFE1C
:1023F00008BD00BFE410002008B5024802F0C6FE88
:1024000008BD00BF7811002010B5044C204602F032
:10241000BDFE204606F074FC10BD00BF0C1200206B
:102420000120704708B506F03DFE162303604FF00B
:10243000FF3008BD08B54FF0FF31FFF7F3FFFEE7AF
:1024400010B503460C4A0D490D48006840B10C48D0
:1024500000680344521A934206D8094A136010BD1B
:102460000748084C0460F2E706F01CFE0C230360EA
:102470004FF0FF30F3E700BF00000220000400002F
:10248000CC0C002030930020034AD2F8883043F46B
:102490007003C2F88830704700ED00E000B589B0E5
:1024A00000230493059306930793019302930393E8
:1024B0001548164A0260A7224260836040F2E73264
:1024C000C26003618023836102F0B8FB90B94FF4CE
:1024D0008053049304A90C4802F0EEFB68B9002372
:1024E0000193039301A9084802F090FC40B909B098
:1024F0005DF804FBFFF7C8FDE9E7FFF7C5FDEEE770
:10250000FFF7C2FDF3E700BFD00C0020000400403D
:1025100002680E4B9A4200D0704700B583B003F5B5
:1025200003339A6D42F002029A659B6D03F0020339
:102530000193019B002205211D2000F0A3FB1D201B
:1025400000F0D8FB03B05DF804FB00BF00040040BE
:1025500008B51748174B03604FF4E133436000237D
:102560008360C36003610C2242618361C3610362C3
:102570004362836203F08CFE70B900210C4804F0C2
:1025800045F860B900210A4804F065F850B90848D8
:1025900004F01DF848B908BDFFF776FDEDE7FFF739
:1025A00073FDEFE7FFF770FDF1E7FFF76DFDF2E771
:1025B00078110020004C004008B51748174B036005
:1025C0004FF4E133436000238360C36003610C2256
:1025D00042618361C36103624362836203F058FE18
:1025E00070B900210C4804F011F860B900210A48C4
:1025F00004F031F850B9084803F0E9FF48B908BDC4
:10260000FFF742FDEDE7FFF73FFDEFE7FFF73CFD8A
:10261000F1E7FFF739FDF2E70C120020005000400F
:1026200008B51748174B03604FF4E13343600023AC
:102630008360C36003610C2242618361C3610362F2
:102640004362836203F024FE70B900210C4803F05A
:10265000DDFF60B900210A4803F0FDFF50B90848CA
:1026600003F0B5FF48B908BDFFF70EFDEDE7FFF732
:102670000BFDEFE7FFF708FDF1E7FFF705FDF2E7D8
:10268000BC0F00200038014008B51748174B036005
:102690004FF4E133436000238360C36003610C2285
:1026A00042618361C36103624362836203F0F0FDB0
:1026B00070B900210C4803F0A9FF60B900210A4855
:1026C00003F0C9FF50B9084803F081FF48B908BDBD
:1026D000FFF7DAFCEDE7FFF7D7FCEFE7FFF7D4FCF5
:1026E000F1E7FFF7D1FCF2E7501000200044004072
:1026F00008B51748174B03604FF4E13343600023DC
:102700008360C36003610C2242618361C361036221
:102710004362836203F0BCFD70B900210C4803F0F2
:1027200075FF60B900210A4803F095FF50B90848C9
:1027300003F04DFF48B908BDFFF7A6FCEDE7FFF732
:10274000A3FCEFE7FFF7A0FCF1E7FFF79DFCF2E742
:10275000E410002000480040F0B5A7B00446002176
:102760002191229123912491259154220CA806F0C5
:10277000C3FC23689C4A934210D09C4A934271D078
:102780009B4A934200F0CC809A4A934200F05081D9
:10279000994A934200F0B08127B0F0BD08230C9312
:1027A0000CA801F02DFE002853D1944B9A6D42F4F1
:1027B00000229A659A6D02F400220092009ADA6C67
:1027C00042F00402DA64DB6C03F004030193019B22
:1027D0004FF44063219302232293002523952495EF
:1027E0000523259321A9864801F066F88548864B84
:1027F00003601E2343608560C560802303614561DB
:1028000085612023C361056200F0DCFA20BB7D4BAB
:10281000C4F880309C627D487D4B03601F23436079
:10282000102383600023C3608022026143618361BF
:10283000C361036200F0C6FA88B9744BE3679C6217
:1028400000220521342000F01DFA342000F052FA55
:10285000A2E7FFF719FCA8E7FFF716FCD7E7FFF799
:1028600013FCEAE710230C930CA801F0C9FD002823
:1028700050D1624B9A6D42F480129A659A6D02F4BF
:1028800080120292029ADA6C42F00402DA64DA6C84
:1028900002F004020392039ADA6C42F00802DA644E
:1028A000DB6C03F008030493049B4FF480532193E3
:1028B000022722970025239524950526259621A9F0
:1028C0004F4800F0F9FF0423219322972395249584
:1028D000259621A94F4800F0EFFF4F484F4B03606A
:1028E000202343608560C560802202614561856167
:1028F000C361056200F066FA78B9474BC4F88030CE
:102900009C6200220521352000F0BCF9352000F042
:10291000F1F941E7FFF7B8FBABE7FFF7B5FBECE7F1
:1029200001230C930CA801F06BFD002852D1334B0E
:102930001A6E42F480421A661A6E02F480420592C0
:10294000059ADA6C42F00402DA64DB6C03F00403EB
:102950000693069B3023219302232293002523957F
:1029600024950723259321A9254800F0A5FF2C488D
:102970002C4B0360182343608560C560802303618E
:10298000456185612023C361056200F01BFA20BB0D
:10299000234BC4F880309C622348244B03601923E6
:1029A0004360102383600023C3608022026143617F
:1029B0008361C361036200F005FA88B91A4BE367CB
:1029C0009C6200220521252000F05CF9252000F002
:1029D00091F9E1E6FFF758FBA9E7FFF755FBD7E7C9
:1029E000FFF752FBEAE700BF004C004000500040F8
:1029F0000038014000440040004800400010024000
:102A0000000800481C0D0020580002407C0D0020EA
:102A10006C000240000C0048DC0D002080000240E9
:102A20003C0E0020080002409C0E00201C000240CA
:102A300002230C930CA801F0E3FC002853D1524B65
:102A40009A6D42F400329A659A6D02F40032079250
:102A5000079ADA6C42F00102DA64DB6C03F00103DE
:102A60000893089B0C23219302232293002523958E
:102A700024950723259321A94FF0904000F01CFFD7
:102A80004248434B03601A2343608560C56080233E
:102A90000361456185612023C361056200F092F9FD
:102AA00020BB3A4BC4F880309C623A483A4B0360F2
:102AB0001B234360102383600023C36080220261D4
:102AC00043618361C361036200F07CF988B9314BD3
:102AD000E3679C6200220521262000F0D3F826201F
:102AE00000F008F958E6FFF7CFFAA8E7FFF7CCFAAD
:102AF000D7E7FFF7C9FAEAE704230C930CA801F023
:102B00007FFC00283DD1204B9A6D42F480229A65CB
:102B10009A6D02F480220992099ADA6C42F010024E
:102B2000DA64DA6C02F010020A920A9ADA6C42F065
:102B30000202DA64DB6C03F002030B930B9B4FF48D
:102B400000432193022622960024239424940725EF
:102B5000259521A9114800F0AFFE4FF48063219321
:102B6000229623942494259521A90D4800F0A4FED3
:102B700022460521272000F085F8272000F0BAF82A
:102B80000AE6FFF781FABEE700100240FC0E0020C3
:102B9000300002405C0F002044000240001000485A
:102BA000000400480D488546FFF76EFC0C480D49AF
:102BB0000D4A002302E0D458C4500433C4188C4298
:102BC000F9D30A4A0A4C002301E013600432A242FE
:102BD000FBD306F06DFAFFF791FAFEE70000022042
:102BE00000000020C8090020A84F0108C8090020E3
:102BF00030930020FEE710B5032000F031F80F20DD
:102C0000FFF736FB10B10124204610BD0446FFF744
:102C10000DFBF9E7034A1368034909680B44136085
:102C2000704700BFA012002008000020014B186868
:102C3000704700BFA012002038B50446FFF7F6FF2A
:102C40000546B4F1FF3F02D0044B1B681C44FFF75C
:102C5000EDFF401BA042FAD338BD00BF08000020A2
:102C6000074AD36823F4E0631B041B0C000200F442
:102C7000E060034343F0BF6343F40033D360704725
:102C800000ED00E000B5194BDB68C3F30223C3F18C
:102C9000070CBCF1040F28BF4FF0040C03F1040E25
:102CA000BEF1060F18D9033B4FF0FF3E0EFA0CFCA5
:102CB00021EA0C0199400EFA03F322EA03031943B7
:102CC00000280BDB0901C9B200F1604000F561404A
:102CD00080F800135DF804FB0023E5E700F00F0027
:102CE0000901C9B2024B1954F4E700BF00ED00E03E
:102CF00014ED00E0002807DB00F01F02400901236B
:102D00009340024A42F82030704700BF00E100E0E3
:102D100030B4C46C056D6560446D14B1846DC56DCF
:102D20006560446C04F01F0C012404FA0CF4056C7B
:102D30006C60046863608368102B05D00368996039
:102D40000368DA6030BC704703689A600368D96032
:102D5000F8E7000003680C4A934213D80B49DBB232
:102D6000083B0B4AA2FB0323426C22F003020A44F5
:102D70008264084AC264C3F30413012202FA03F313
:102D8000036570470449EAE707040240000802406F
:102D9000CDCCCCCC80080240200802400379074A01
:102DA0001A4492004265064A8265013B03F01F0304
:102DB000012202FA03F3C365704700BF3F8200108F
:102DC0004009024000285BD010B5044601682D4B35
:102DD00099423DD82C4B0B442C4AA2FB03231B09E0
:102DE0009B0043642A4B0364022384F825300A685D
:102DF00022F4FF4222F07002A368E06803432069D6
:102E0000034360690343A0690343E0690343206A05
:102E1000034313430B602046FFF79CFFA368B3F501
:102E2000804F20D0A36C22791A60E36C226D5A6027
:102E30006368013B032B19D900236365A365E36530
:102E40000020E063012384F8253084F8240010BDBD
:102E5000104B0B440D4AA2FB03231B099B00436448
:102E60000D4B0364C0E700236360DBE72046FFF7F8
:102E700095FF636D00221A60A36DE26D5A60DFE773
:102E80000120704707040240F8FFFDBFCDCCCCCC39
:102E900000000240F8FBFDBF0004024038B50446C4
:102EA00090F82400012841D0012084F8240094F8EF
:102EB0002500C0B2012804D0002384F82430022069
:102EC00038BD022084F825000020E06325682868CA
:102ED00020F0010028602046FFF71AFF236BD3B1D2
:102EE0002268136843F00E031360A36C1A6812F48F
:102EF000803F03D01A6842F480721A60636D1BB180
:102F00001A6842F480721A602268136843F0010361
:102F100013600020D4E72268136823F004031360D1
:102F20002268136843F00A031360DEE70220C7E754
:102F3000034690F82520D2B2022A09D00422C263A7
:102F40000120012283F82520002283F824207047E5
:102F500001680A6822F00E020A60816C0A6822F495
:102F600080720A6001680A6822F001020A60426CFD
:102F700002F01F01006C01228A404260DA6C196D78
:102F800051605A6D42B1116821F4807111609A6DDF
:102F9000D96D51600020D4E70020D2E708B590F841
:102FA0002530DBB2022B09D00423C363012380F850
:102FB0002530002280F82420184608BD02681368D6
:102FC00023F00E0313600268136823F001031360FB
:102FD000826C136823F480731360436C03F01F0248
:102FE000016C012393404B60C36C026D5A60436DCA
:102FF00033B11A6822F480721A60836DC26D5A6010
:10300000012380F82530002380F82430836B13B12E
:1030100098470020D1E70020CFE738B5036C196846
:1030200004682568436C03F01F0304229A400A4297
:1030300015D015F0040F12D0236813F0200F03D120
:10304000236823F004032360436C03F01F02016C28
:10305000042393404B60036B03B1984738BD0222B1
:103060009A400A421CD015F0020F19D0236813F0C1
:10307000200F06D1236823F00A032360012380F880
:103080002530436C03F01F02016C022393404B6018
:10309000002380F82430C36A002BDFD09847DDE797
:1030A000082202FA03F30B42D8D015F0080FD5D04E
:1030B000236823F00E032360436C03F01F03016CAD
:1030C000012202FA03F34B60C26380F8252000233B
:1030D00080F82430436B002BC0D09847BEE7C06B0C
:1030E0007047000010B402681D4B9A4228D01D4959
:1030F0001D4B9A4226D00164D2F8803023F4F81395
:10310000446B43EA0443C2F8803001F17003436426
:103110000268D2F8803023F07063846B43EA046362
:10312000C2F8803001F1B003836401F5C473C36455
:1031300001F51873036501F51E7343650B4607E03F
:103140000A49D5E701F5D461D5E7002243F8042BFD
:1031500001F554729A42F8D85DF8044B704700BFED
:103160000068004000A40040006C004050A70040F0
:1031700070B54C68ECB90D698C6825430C6845EA5C
:103180008445CC690E6A44EA06648E6934434E690C
:103190003443CE6844EA0644406D03EBC30300EBBE
:1031A000C30E40F83350CEF804400EF1080E002054
:1031B00019E00C698D6825430C68254345F080456E
:1031C000DFE702EB000C9CF803409CF802301B0484
:1031D00043EA04639CF8014043EA0423145C23435C
:1031E0004EF8043B0430CB68024CE35C8342E8D8E1
:1031F00070BD00BF00470108002800F0E38038B52B
:10320000044690F85C30D3B12268936923F0100330
:103210009361FFF70BFD054623689A6912F0080FCA
:1032200012D0FFF703FD401B0A28F5D9236E43F0A7
:1032300001032366032384F85C30012038BD80F845
:103240005D30FEF767FEDFE79A6942F001029A619E
:10325000FFF7ECFC054623689A6912F0010F0DD1C7
:10326000FFF7E4FC401B0A28F5D9236E43F0010365
:103270002366032384F85C300120DFE79A6942F07B
:1032800002029A612268504B9A4242D0237C012B61
:1032900045D02268936943F040039361637C012B1E
:1032A00043D02268936923F480439361A37C012B6C
:1032B00041D02268936943F48053936122689369F3
:1032C00023F44073A1680B4393612268936923F050
:1032D000A40393612268136923F010031361E36868
:1032E000012B2ED0002B31D0022B54D022689369B1
:1032F00043F0800393612268136943F01003136164
:10330000E368032B22D12268936943F02003936181
:103310001CE06268A3F58063C3F80025B6E7226865
:10332000936923F040039361B8E72268936943F4FB
:1033300080439361BAE72268936923F480539361D1
:10334000BCE72268936943F004039361A3695A1EA2
:10335000E369013B1B0243EA4263226A013A1343D9
:103360006269013A216843EA0243CB61A368B3F57D
:10337000407F16D02268D2F8C030E16B0B43C2F810
:10338000C0302046FFF7AEFE0020A0652066012376
:1033900084F85C3052E72268936943F0200393611C
:1033A000D4E7A36A013BE26A013A43EA0223226BB3
:1033B000013A43EA0213626A013A216843EA02438E
:1033C000CB60D7E7012070470064004090F85C3084
:1033D000013BDBB2012B05D9036E43F00203036608
:1033E000012070470B68A3B110B4CA680B6943EAA7
:1033F00042724B698C6843EA8473406C496800EB05
:10340000C10C40F83120CCF8043000205DF8044BAA
:1034100070478A68CB68DB0643EA82730A6943EA2D
:1034200002434A691343026C496842F82130002084
:10343000704790F85C30DBB2012B05D0036E43F08F
:103440000403036601207047022380F85C300268A1
:10345000936923F0010393610023036618467047C4
:1034600038B5044690F85C30DBB2022B1BD1036800
:10347000D3F8C40010F4001F05D0236E43F400738A
:103480002366012014E0D3F8C450C5F301452B4650
:103490002046FFF76DFE22680123AB40C2F8CC3016
:1034A000A365002004E0036E43F0080303660120D7
:1034B00038BD000070B590F85C40E4B2022C40F0DA
:1034C000A28040290BD00468D4F8985015F00F0F53
:1034D0002DD1036E43F480730366012098E00468E5
:1034E000D4F8905015F00F0F05D1036E43F480739C
:1034F000036601208CE0D4F89050C5F3006C15F001
:10350000807F08D0D4F88050C5F3402C15F4007F9C
:1035100001D04FF0010CD4F89040C4F301240CEB1F
:103520000405846C05EBC50C04EBCC0C1AE0D4F854
:103530009850C5F3006C15F0807F08D0D4F8805007
:10354000C5F3002C15F4807F01D04FF0010CD4F8A6
:103550009840C4F301240CEB0405C46C05EBC50CC6
:1035600004EBCC0CDCF8004004F08044546074BBE5
:10357000DCF80040C4F38A441460DCF8004004F036
:1035800000549460DCF8004004F000441461BCF87E
:103590000440D461BCF8064004F00F04D460DCF8A9
:1035A000044004F480145461DCF8044004F4001472
:1035B00094619CF8074004F07F041462DCF8044036
:1035C000E40F54620CF1080E4FF0000C0BE0DCF835
:1035D000004024F060441460CFE71EF80C4003F86C
:1035E0000C400CF1010C0B4CD668A45D6445F4D87A
:1035F000402904D00368C3F89C50002008E0036809
:10360000C3F89450F9E7036E43F008030366012002
:1036100070BD00BF0047010890F85C30013BDBB291
:10362000012B05D9036E43F00203036601207047A6
:1036300070B40468A36D11F0070602D013F0010FF7
:1036400023D011F0380F02D013F0020F1DD011F467
:10365000E07F02D013F0040F17D011F4F05F02D016
:1036600013F0080F11D011F4604F02D013F0100FB7
:103670000BD011F4403F02D013F0200F05D011F40D
:103680007C0F06D013F0400F03D1E56D45F0010526
:10369000E56516B113F0010F23D111F0380F02D0F8
:1036A00013F0020F1DD111F4E07F02D013F0040FCC
:1036B00017D111F4F05F02D013F0080F11D111F4FB
:1036C000604F02D013F0100F0BD111F4403F02D025
:1036D00013F0200F05D111F47C0F07D013F0400F29
:1036E00004D00468E36D43F00203E36511F0800F3A
:1036F00005D00468D4F8DC301343C4F8DC3011F48E
:10370000807F05D00468D4F8E0301A43C4F8E02084
:103710000268536D19435165002070BC70477047B3
:1037200070477047704770477047704770477047E1
:103730002DE9F84F044603681A6D02F4E05A5A6DF9
:103740000AEA020A1A6D02F007095A6D09EA02092B
:103750001A6D02F038085A6D08EA02081E6D06F468
:1037600071065A6D16401F6D07F460275A6D174099
:10377000D3F854B01D6D15F0400F02D01BF0400F70
:1037800041D115F4807F02D01BF4807F40D1BAF183
:10379000000F4AD1B9F1000F4FD1B8F1000F54D149
:1037A00015F4007F02D01BF4007F56D115F0800F76
:1037B00002D01BF0800F58D115F4005F02D01BF42B
:1037C000005F5ED115F4004F02D01BF4004F60D1B2
:1037D00015F4804F0AD01BF4804F07D023684FF4B4
:1037E00080421A65236E43F080032366002F58D170
:1037F00026B123681E65236E1E432666236E002BAA
:1038000056D1BDE8F88F40221A65FFF78EFFB8E762
:103810002368D3F8D810D3F8E0204FF480701865EF
:1038200011402046FFF77EFFB1E72368C3F850A0A0
:1038300051462046FFF773FFACE72368C3F850906A
:103840004946204605F02EF8A7E72368C3F85080C4
:103850004146204605F0A4F8A2E723684FF4007221
:103860001A652046FFF75CFFA0E72368D3F8D41061
:10387000D3F8DC208020186511402046FFF751FF67
:103880009AE723684FF400521A652046FFF74BFF72
:1038900098E723684FF400421A652046FFF744FF7B
:1038A00096E723681F6539462046FFF740FF9FE7EC
:1038B0002046FFF73BFFA4E7F0B583B0002362E0AA
:1038C00085685E000324B44025EA0405CC68B44052
:1038D0002C438460446824EA0C0C4C68C4F3001444
:1038E0009C4044EA0C0444605EE0DD08083550F872
:1038F000256003F007044FEA840C0F2404FA0CF44B
:1039000026EA040E0C6904FA0CF444EA0E0440F8AA
:10391000254060E0052400E0002404FA0EF42C4366
:103920000CF1020C554D45F82C40554CA568D4437C
:1039300025EA02064F6817F4801F01D042EA050607
:103940004F4DAE60ED6804EA05064F6817F4001F9E
:1039500001D042EA05064A4DEE606D6804EA0506AC
:103960004F6817F4003F01D042EA0506444D6E60EF
:103970002D682C404E6816F4803F01D042EA0504C1
:103980003F4A146001330A6832FA03F474D04FF0EE
:10399000010C0CFA03FC1CEA0202F3D04C6804F0A0
:1039A0000304013C012C8BD94C6804F00304032C64
:1039B0000CD0C4685D004FF0030C0CFA05FC24EA3F
:1039C0000C0C8C68AC4044EA0C04C4604C6804F0F5
:1039D0000304022C89D004684FEA430E4FF0030C15
:1039E0000CFA0EFC24EA0C0C4C6804F0030404FAF4
:1039F0000EF444EA0C0404604C6814F4403FC1D057
:103A0000204C256E45F001052566246E04F0010466
:103A10000194019C4FEA930C0CF10205174C54F8E9
:103A2000255003F003044FEA840E0F2404FA0EF429
:103A300025EA0405B0F1904F3FF46EAF124CA0425E
:103A400012D004F58064A04210D004F58064A04236
:103A50000ED004F58064A0420CD004F58064A0422E
:103A60003FF458AF062458E7012456E7022454E7F0
:103A7000032452E7042450E703B0F0BD00000140E6
:103A80000004014000100240000400480AB18161B6
:103A90007047816270470000002836D13E4B1B689A
:103AA00003F4C063B3F5806F08D03B4AD2F880308E
:103AB00023F48073C2F8803000207047364AD2F871
:103AC000803023F48073C2F88030136823F4C0631D
:103AD00043F400731360314B1B68322202FB03F383
:103AE0002F4AA2FB03239B0C013300E0013B2A4A2F
:103AF000526912F4806F01D0002BF7D1264B5B691D
:103B000013F4806F44D100207047B0F5007F08D0D7
:103B1000214A136823F4C06343F4806313600020D8
:103B200070471D4B1B6803F4C063B3F5806F08D06A
:103B3000194AD2F8803043F48073C2F880300020F4
:103B40007047154AD2F8803043F48073C2F8803051
:103B5000136823F4C06343F4007313600F4B1B68B6
:103B6000322202FB03F30E4AA2FB03239B0C013318
:103B700000E0013B084A526912F4806F01D0002B2B
:103B8000F7D1054B5B6913F4806F03D100207047B8
:103B9000032070470320704700700040040000209D
:103BA00083DE1B43024A936843F48043936070476B
:103BB00000700040124BDA6802F00302D868C0F3CC
:103BC0000310431C032A11D00E48B0FBF3F00C4B3A
:103BD000DB68C3F3062303FB00F0094BDB68C3F388
:103BE000416301335B00B0FBF3F070470648B0FB64
:103BF000F3F0034BDB68C3F3062303FB00F0ECE7B1
:103C0000001002400024F400006CDC02002800F0E8
:103C10004F8270B582B00446036813F0010F37D0AD
:103C2000A44A936803F00C03D26802F003020C2B41
:103C300023D0082B23D06368B3F5803F4ED0B3F573
:103C4000A02F51D09B4B1A6822F480321A601A6858
:103C500022F480221A606368002B52D0FEF7E6FF40
:103C60000546944B1B6813F4003F11D1FEF7DEFFAD
:103C7000401B6428F5D9032023E2032AD9D18D4BB8
:103C80001B6813F4003F03D06368002B00F012821E
:103C9000236813F0020F5DD0864A936803F00C038B
:103CA000D26802F003020C2B3AD0042B3AD0E3681E
:103CB000002B75D07F4A136843F480731360FEF7BE
:103CC000B5FF05467B4B1B6813F4806F5FD1FEF791
:103CD000ADFF401B0228F5D90320F2E1754A1368B5
:103CE00043F480331360B6E703F18043A3F53C331C
:103CF0001A6842F480221A601A6842F480321A600C
:103D0000A9E7FEF793FF05466A4B1B6813F4003FD3
:103D1000BED0FEF78BFF401B6428F5D90320D0E10D
:103D2000022AC2D1634B1B6813F4806F03D0E3688F
:103D3000002B00F0C1815F4A536823F0FE432169E4
:103D400043EA016353605C4B1868FEF791FA002860
:103D500040F0B481236813F0080F4CD063699BB323
:103D6000544AD2F8943043F00103C2F89430FEF77D
:103D70005DFF05464F4BD3F8943013F0020F3AD154
:103D8000FEF754FF401B0228F4D9032099E1494A69
:103D9000536823F0FE43216943EA01635360D9E786
:103DA000444A136823F480731360FEF73FFF05460F
:103DB000404B1B6813F4806FCCD0FEF737FF401BDD
:103DC0000228F5D903207CE13A4AD2F8943023F056
:103DD0000103C2F89430FEF729FF0546354BD3F8AE
:103DE000943013F0020F06D0FEF720FF401B02288C
:103DF000F4D9032065E1236813F0040F00F08180FB
:103E00002C4B9B6D13F0805F36D12A4B9A6D42F09C
:103E100080529A659B6D03F080530193019B0125AD
:103E2000264B1B6813F4807F28D0A368012B39D060
:103E3000052B45D01F4BD3F8902022F00102C3F888
:103E40009020D3F8902022F00402C3F89020A368B9
:103E5000002B43D0FEF7EAFE0646164BD3F890300F
:103E600013F0020F4CD1FEF7E1FE801B41F28833C4
:103E70009842F2D9032024E10025D1E70F4A1368C4
:103E800043F480731360FEF7D1FE06460B4B1B68AC
:103E900013F4807FC9D1FEF7C9FE801B0228F5D933
:103EA00003200EE1034AD2F8903043F00103C2F838
:103EB0009030CCE7001002400C0000200070004061
:103EC000884BD3F8902042F00402C3F89020D3F836
:103ED000902042F00102C3F89020B8E7FEF7A6FE5A
:103EE0000646804BD3F8903013F0020F08D0FEF74F
:103EF0009DFE801B41F288339842F2D90320E0E016
:103F0000E5B9236813F0200F35D0A369E3B1754AF2
:103F1000D2F8983043F00103C2F89830FEF786FEDD
:103F20000546704BD3F8983013F0020F23D1FEF7FB
:103F30007DFE401B0228F4D90320C2E0694A936D3C
:103F400023F080539365DCE7664AD2F8983023F07B
:103F50000103C2F89830FEF769FE0546614BD3F8BD
:103F6000983013F0020F06D0FEF760FE401B0228C7
:103F7000F4D90320A5E0E369002B00F0A180594AA1
:103F8000926802F00C020C2A64D0022B13D0554A1E
:103F9000136823F080731360FEF748FE0446514B0C
:103FA0001B6813F0007F4ED0FEF740FE001B022876
:103FB000F5D9032085E04B4A136823F08073136022
:103FC000FEF734FE0546474B1B6813F0007F06D012
:103FD000FEF72CFE401B0228F5D9032071E0414A70
:103FE000D36841491940236A606A013843EA0013E3
:103FF000A06A43EA0023206B4008013843EA40539B
:10400000606B4008013843EA4063E06A43EAC063FA
:104010000B43D360136843F080731360D36843F09D
:104020008073D360FEF702FE04462E4B1B6813F02C
:10403000007F06D1FEF7FAFD001B0228F5D9032008
:104040003FE000203DE0274AD168284B0B40D36079
:10405000002036E0012B36D0224BDB6803F0030151
:10406000226A914231D103F0F002616A0139B2EB68
:10407000011F2CD103F4FE42A16AB2EB012F28D11B
:1040800003F07842E16AB2EBC16F24D103F4C001BE
:10409000226B5208013AB1EB425F1ED103F0C063BC
:1040A000626B5208013AB3EB426F18D1002008E06E
:1040B00001207047012004E0012002E0012000E01F
:1040C000002002B070BD0120FBE70120F9E70120CC
:1040D000F7E70120F5E70120F3E70120F1E70120F0
:1040E000EFE700BF001002400C809F01FCFFEEFED6
:1040F0001E4B9B6803F00C03042B33D01B4B9B68B7
:1041000003F00C03082B2FD0184B9B6803F00C0313
:104110000C2B01D000207047144BDA6802F0030228
:10412000D868C0F30310431C032A11D01048B0FB19
:10413000F3F00E4BDB68C3F3062303FB00F00B4BDD
:10414000DB68C3F3416301335B00B0FBF3F07047FE
:104150000848B0FBF3F0054BDB68C3F3062303FB11
:1041600000F0ECE702487047024870470010024038
:104170000024F400006CDC02002800F0E680F8B5B2
:104180000C460546744B1B6803F00F038B420BD2A1
:10419000714A136823F00F030B431360136803F095
:1041A0000F038B4240F0D3802E6816F001065FD0DB
:1041B0006B68032B2FD0022B4DD0684B1B6813F478
:1041C000806F00F0C680FFF793FF654B98424DD992
:1041D000624A936823F0F00343F0800393608026E3
:1041E0005E4A936823F0030369680B439360FEF70C
:1041F0001DFD0746594B9B6803F00C036A68B3EB3F
:10420000820F35D0FEF712FDC01B41F28833984271
:10421000F0D9032078E0514B1B6813F0007F01D1E7
:10422000012071E0FFF7C6FC4D4B98421AD94B4B69
:104230009B6813F0F00F05D02E6816F00206CFD061
:10424000AB688BB9454A936823F0F00343F08003D1
:1042500093608026C4E7414B1B6813F4003FB2D142
:10426000012051E00026BBE70026B9E70026B7E7AA
:104270002B6813F0020F48D013F0040F04D0374A14
:10428000936843F4E06393602B6813F0080F06D043
:10429000324A936823F47C5343F4E06393602F4ADB
:1042A000936823F0F003A9680B4393602A4B1B68C3
:1042B00003F00F03A34230D82B6813F0040F06D08D
:1042C000264A936823F4E063E9680B4393602B6804
:1042D00013F0080F07D0214A936823F4605329692B
:1042E00043EAC1039360FFF703FF1C4B9B68C3F3D2
:1042F00003131C4AD35C03F01F03D8401A4B186009
:104300001A4B1868FDF7B4FFF8BD802ECED1134AC2
:10431000936823F0F0039360C8E70F4A136823F013
:104320000F0323431360FEF781FC06460A4B1B680C
:1043300003F00F03A342BFD0FEF778FC801B41F2CD
:1043400088339842F2D90320DEE70120704701202C
:10435000DAE70120D8E700BF002002400010024049
:1043600000B4C404E8460108040000200C0000204A
:10437000014B1868704700BF0400002008B5FFF724
:10438000F7FF054B9B68C3F30223044AD35C03F099
:104390001F03D84008BD00BF00100240F8460108C6
:1043A00008B5FFF7E5FF054B9B68C3F3C223044A3A
:1043B000D35C03F01F03D84008BD00BF00100240CB
:1043C000F84601080F2303600B4B9A6802F00302C2
:1043D00042609A6802F0F00282609A6802F4E06239
:1043E000C2609B68DB0803F4E0630361034B1B6856
:1043F00003F00F030B6070470010024000200240E2
:10440000F0B583B00446036813F4002F6ED0354B2B
:104410009B6D13F0805F1ED1324B9A6D42F080523B
:104420009A659B6D03F080530193019B01262E4AF0
:10443000136843F480731360FEF7F8FB05462A4BBC
:104440001B6813F4807F08D1FEF7F0FB401B0228A5
:10445000F5D9032502E00026E9E7002545BB214BFD
:10446000D3F8903013F4407315D0226D9A4212D0D5
:104470001C4AD2F8903023F44073D2F8901041F4E3
:104480008031C2F89010D2F8901021F48031C2F837
:104490009010C2F8903013F0010F10D145B9114AB5
:1044A000D2F8903023F44073216D0B43C2F8903062
:1044B000EEB10C4A936D23F08053936517E0FEF73D
:1044C000B5FB0746074BD3F8903013F0020FE5D148
:1044D000FEF7ACFBC01B41F288339842F2D90325AA
:1044E000DCE700BF00100240007000400025236898
:1044F00013F0010F08D09F4AD2F8883023F003034D
:1045000061680B43C2F88830236813F0020F08D0AB
:10451000984AD2F8883023F00C03A1680B43C2F804
:104520008830236813F0040F08D0924AD2F88830FC
:1045300023F03003E1680B43C2F88830236813F09E
:10454000080F08D08B4AD2F8883023F0C0032169C5
:104550000B43C2F88830236813F0100F08D0854A47
:10456000D2F8883023F4407361690B43C2F8883075
:10457000236813F0200F08D07E4AD2F8883023F445
:104580004063A1690B43C2F88830236813F0400FE1
:1045900008D0784AD2F8883023F44053E1690B43BD
:1045A000C2F88830236813F0800F08D0714AD2F81F
:1045B000883023F44043216A0B43C2F888302368D3
:1045C00013F4807F08D06B4AD2F8883023F440334C
:1045D000616A0B43C2F88830236813F4003F08D0A7
:1045E000644AD2F89C3023F00303A16A0B43C2F85B
:1045F0009C30236813F4007F08D05E4AD2F88830DC
:1046000023F44023E16A0B43C2F88830236813F493
:10461000806F0CD0574AD2F8883023F44013216BB6
:104620000B43C2F88830236BB3F5801F79D0236821
:1046300013F4006F0CD04F4AD2F8883023F44003B3
:10464000616B0B43C2F88830636BB3F5800F6DD09C
:10465000236813F4805F0CD0464AD2F8883023F0E8
:104660004073A16B0B43C2F88830A36BB3F1807F1A
:1046700061D0236813F4005F0CD03E4AD2F8883032
:1046800023F04063E16B0B43C2F88830E36BB3F176
:10469000006F55D0236813F4804F0CD0354AD2F800
:1046A000883023F04063216C0B43C2F88830236CC0
:1046B000B3F1006F49D0236813F4004F0CD02D4A9A
:1046C000D2F8883023F04053616C0B43C2F8883035
:1046D000636CB3F1805F3DD0236813F4803F0CD04E
:1046E000244AD2F8883023F04043A16C0B43C2F82F
:1046F0008830A36CB3F1804F31D0236813F4802F3E
:104700000CD01C4AD2F89C3023F44013E16C0B43CC
:10471000C2F89C30E36CB3F5001F25D0284603B0E7
:10472000F0BDD36843F48013D36080E7D36843F4CB
:104730008013D3608CE7D36843F48013D36098E789
:10474000D36843F48013D360A4E7D36843F48013A1
:10475000D360B0E7D36843F48033D360BCE7D36859
:1047600043F48033D360C8E7D36843F48013D36045
:10477000D4E700BF0010024000286FD010B50446F7
:10478000436A33B94368B3F5827F05D00023C36120
:1047900002E00023036143610023A36294F85D30CB
:1047A000002B52D0022384F85D302268136823F076
:1047B00040031360E368B3F5E06F4CD90022B3F512
:1047C000706F04D0B3F5E06F01D00023A36263687B
:1047D00003F48273A16801F404410B43216901F0E1
:1047E00002010B43616901F001010B43A16901F46E
:1047F00000710B43E16901F038010B43216A01F0BC
:1048000080010B43A16A01F4005120680B4303604F
:10481000638B03F00403616A01F010010B43616BC9
:1048200001F008010B43E16801F470610B4321685A
:1048300013434B602268D36923F40063D3610020E3
:104840002066012384F85D3010BD84F85C3020467A
:10485000FDF7BAFCA6E74FF48052B0E7012070479D
:1048600010B4036A046A24F001040462846924F029
:10487000F00C4CEA021223F00A030B43826103623C
:104880005DF8044B704710B4036A046A24F0100406
:104890000462846924F4704C4CEA023223F0A003D1
:1048A00043EA0113826103625DF8044B7047836839
:1048B00023F4401323F070030B4343F0070383609A
:1048C0007047000090F83D30DBB2012B3AD1022353
:1048D00080F83D300268D36843F00103D360036879
:1048E0001B4A934220D0B3F1804F1DD0A2F59432E1
:1048F000934219D002F58062934215D002F580628E
:10490000934211D002F5943293420DD002F54062E9
:10491000934209D002F58052934205D01A6842F0C2
:1049200001021A600020704799680A4A0A40062A64
:104930000AD0B2F5803F09D01A6842F001021A602D
:10494000002070470120704700207047002070470A
:10495000002C014007000100704770477047704706
:1049600070B505460368DE681C6914F0020F10D0AC
:1049700016F0020F0DD06FF002021A6101230377C7
:1049800003689B6913F0030F7CD0FFF7E6FF002359
:104990002B7714F0040F12D016F0040F0FD02B68F1
:1049A0006FF004021A6102232B772B689B6913F4C2
:1049B000407F6DD02846FFF7D0FF00232B7714F0FF
:1049C000080F12D016F0080F0FD02B686FF00802F6
:1049D0001A6104232B772B68DB6913F0030F5ED079
:1049E0002846FFF7BAFF00232B7714F0100F12D0E0
:1049F00016F0100F0FD02B686FF010021A61082309
:104A00002B772B68DB6913F4407F4FD02846FFF7E4
:104A1000A4FF00232B7714F0010F02D016F0010F32
:104A20004BD114F4025F02D016F0800F4DD114F474
:104A3000807F02D016F0800F4FD114F0400F02D0CB
:104A400016F0400F51D114F0200F02D016F0200FB5
:104A500053D114F4801F02D016F4801F55D114F4E2
:104A6000001F02D016F4001F57D114F4800F02D09B
:104A700016F4800F59D114F4000F02D016F4000F71
:104A80005BD170BDFFF768FF2846FFF767FF7EE741
:104A90002846FFF761FF2846FFF760FF8DE72846AD
:104AA000FFF75AFF2846FFF759FF9CE72846FFF714
:104AB00053FF2846FFF752FFABE72B686FF0010268
:104AC0001A61284603F0A6FDABE72B686FF402528B
:104AD0001A61284600F0F1F9A9E72B686FF480729B
:104AE0001A61284600F0EAF9A7E72B686FF0400248
:104AF0001A612846FFF733FFA5E72B686FF0200205
:104B00001A61284600F0D8F9A3E72B686FF48012E9
:104B10001A61284600F0D3F9A1E72B686FF4001260
:104B20001A61284600F0CCF99FE72B686FF48002E9
:104B30001A61284600F0C5F99DE72B686FF4000262
:104B40001A61284600F0BEF99BE7000003683A4A64
:104B5000904216D0B0F1804F13D0A2F5943290421B
:104B60000FD002F5806290420BD002F58062904235
:104B700007D002F59432904203D002F5E052904201
:104B800003D123F070034A6813432B4A904222D08A
:104B9000B0F1804F1FD0A2F5943290421BD002F5A5
:104BA0008062904217D002F58062904213D002F5E5
:104BB000943290420FD002F5406290420BD002F541
:104BC0008062904207D002F58062904203D002F5E5
:104BD0000062904203D123F44073CA68134323F068
:104BE00080034A69134303608B68C3620B68836266
:104BF000114B984213D003F5006398420FD003F590
:104C0000406398420BD003F58063984207D003F5C8
:104C10008063984203D003F50063984201D10B6989
:104C2000036301234361036913F0010F03D0036998
:104C300023F0010303617047002C014060B310B5FD
:104C4000044690F83D3013B3022384F83D302146EA
:104C500051F8040BFFF77AFF012384F8483084F8F9
:104C60003E3084F83F3084F8403084F8413084F896
:104C7000423084F8433084F8443084F8453084F876
:104C8000463084F8473084F83D30002010BD80F86D
:104C90003C30FDF73DFCD7E70120704710B4846835
:104CA00024F47F4C42EA03220A4342EA0C02826067
:104CB0005DF8044B7047000090F83C30012B00F089
:104CC0009B8010B50446012380F83C30022380F815
:104CD0003D3002689068494B034093600B68702B2D
:104CE00061D031D8502B78D00CD9602B2AD1CA682A
:104CF00049682068FFF7C7FD60212068FFF7D7FDEE
:104D0000002038E0402B0AD1CA6849682068FFF7C4
:104D1000A7FD40212068FFF7CAFD00202BE067D8DF
:104D2000202B07D003D9302B04D0012023E00BB176
:104D3000102B05D119462068FFF7B9FD00201AE0B5
:104D4000012018E0012016E0B3F5005F38D00ED93D
:104D50002B4A9342EED015D92A4A9342EAD0103218
:104D60009342E7D0203A9342E4D0012003E0B3F528
:104D7000805F3FD10020012384F83D30002384F878
:104D80003C3010BD203A9342D4D004D91E4A9342FD
:104D9000D0D00120EFE7B3F5801FCBD0B3F1101FC7
:104DA000C8D00120E7E7CB684A6889682068FFF728
:104DB00075FF2268936843F0770393600020DAE779
:104DC000CB684A6889682068FFF768FF22689368A3
:104DD00043F4804393600020CDE7CA6849682068A7
:104DE000FFF73EFD50212068FFF761FD0020C2E77C
:104DF0000120C0E70120BEE7022070478800CEFFF7
:104E000040001000600010003000100090F83C30AE
:104E1000012B4CD030B4012380F83C30022380F8C1
:104E20003D30026853689468224DAA4207D005F5C8
:104E30000065AA4203D005F5E055AA4203D123F448
:104E400070034D682B4323F0007323F070030D684B
:104E50002B4353600368174A93421AD0B3F1804F33
:104E600017D0A2F59432934213D002F58062934298
:104E70000FD002F5806293420BD002F59432934238
:104E800007D002F54062934203D002F5805293426C
:104E900004D124F080048A6814439C60012380F8C4
:104EA0003D30002380F83C30184630BC704702206B
:104EB000704700BF002C0140704770477047704733
:104EC000704770477047026852E8003F23F0C00304
:104ED00042E800310029F6D1026802F1080353E8E4
:104EE000003F23F40003083242E800310029F3D1E7
:104EF0002023C0F888307047026852E8003F23F44E
:104F0000907342E800310029F6D1026802F10803EB
:104F100053E8003F23F0805323F00103083242E8B6
:104F200000310029F1D1C36E012B06D02023C0F837
:104F30008C300023C36643677047026852E8003F25
:104F400023F0100342E800310029F6D1EEE700001B
:104F50001346D0F88820202A3DD110B504460029F8
:104F60003BD0002B3BD00165A0F85430A0F8563060
:104F70000022C0F890202122C0F88820C26FCAB158
:104F80001849D162C26F18491163C26F1749516342
:104F9000C26F0021916302682832016DC06FFDF776
:104FA0007DFF38B11023C4F890302023C4F8883036
:104FB00001200FE0236840221A62226802F10803F0
:104FC00053E8003F43F08003083242E800310029F3
:104FD000F3D1002010BD022070470120FAE7012024
:104FE000F8E700BFA5500008135100082151000840
:104FF00038B50446D0F88820D0F88C5003689B68F8
:1050000013F0800F01D0212A08D023689B6813F089
:10501000400F44D0222D20D0002041E0226802F130
:10502000080353E8003F23F08003083242E80031D0
:105030000029F3D1E06F10B1FDF77AFF18B92046CF
:10504000FFF741FFE1E7E06FFEF749F82028F6D1CE
:105050001023C4F89030032022E0226802F10803F4
:1050600053E8003F23F04003083242E800310029B2
:10507000F3D1D4F8800010B1FDF75AFF20B92046D3
:10508000FFF73AFF00200BE0D4F88000FEF727F886
:105090002028F4D11023C4F89030032000E0002031
:1050A00038BD704708B50346806A1B681B6813F05B
:1050B000200F18D10023A0F85630026802F108032F
:1050C00053E8003F23F08003083242E80031002912
:1050D000F3D1026852E8003F43F0400342E8003158
:1050E0000029F6D108BDFFF7DCFFFBE708B5026831
:1050F00052E8003F23F0400342E800310029F6D196
:105100002023C0F8883000238367FFF7CAFF08BD5B
:10511000704708B5806AFFF7FBFF08BD704770470E
:1051200038B5846AD4F88820D4F88C5023689B68FA
:1051300013F0800F01D0212A10D023689B6813F050
:10514000400F01D0222D10D0D4F8903043F010033E
:10515000C4F890302046FFF7E2FF38BD0023A4F8E2
:1051600056302046FFF7AFFEE7E70023A4F85E3095
:105170002046FFF7C1FEE7E708B5806A0023A0F8E4
:105180005E30FFF7CCFF08BD7047000070B50446E5
:105190000168CB6908688D6840F60F021A4008D193
:1051A00013F0200F05D010F0200F34D115F0805FE0
:1051B00031D12AB1A04A2A4033D1A04E304230D159
:1051C000E26E012A00F0C68013F4801F03D015F4AC
:1051D000800F40F0738113F0800F07D010F0800F24
:1051E00040F0738115F4000F40F06F8113F0400F11
:1051F00003D010F0400F40F06F8113F4000F03D084
:1052000010F0804F40F06C8113F0807F02D00028B6
:10521000C0F26A8170BD636F002BFBD020469847B7
:10522000F8E713F0010F09D010F4807F06D00126B3
:105230000E62D4F890103143C4F8901013F0020FAE
:105240000BD015F0010F08D0216802260E62D4F8A9
:10525000901041F00401C4F8901013F0040F0BD02B
:1052600015F0010F08D0216804260E62D4F89010C2
:1052700041F00201C4F8901013F0080F0BD010F0A9
:10528000200F00D13AB1226808211162D4F8902091
:105290000A43C4F8902013F4006F0CD010F0806F14
:1052A00009D022684FF400611162D4F8902042F0D6
:1052B0002002C4F89020D4F89020002AAAD013F03D
:1052C000200F09D010F0200F02D115F0805F03D01D
:1052D000636F0BB120469847D4F8902023689B68F1
:1052E00013F0400F02D112F0280F2CD02046FFF708
:1052F00003FE23689B6813F0400F20D0226802F160
:10530000080353E8003F23F04003083242E800312D
:105310000029F3D1D4F880306BB1494A9A63D4F8AC
:105320008000FDF73BFE00283FF474AFD4F8800006
:10533000836B98476EE72046FFF7F1FE6AE7204649
:10534000FFF7EDFE66E72046FFF7E9FE0023C4F80D
:1053500090305FE713F0100F3FF436AF10F0100FEE
:105360003FF432AF10230B6223689B6813F0400FA9
:1053700068D0D4F880100A6853689BB2002B4AD0DA
:10538000B4F85C00984246D9A4F85E300B681B68FC
:1053900013F0200F32D1226852E8003F23F48073CB
:1053A00042E800310029F6D1226802F1080353E8EF
:1053B000003F23F00103083242E800310029F3D115
:1053C000226802F1080353E8003F23F0400308324B
:1053D00042E800310029F3D12023C4F88C300023A7
:1053E000E366226852E8003F23F0100342E80031F0
:1053F0000029F6D1D4F88000FDF79AFD0223236737
:10540000B4F85C10B4F85E309BB2C91A89B2204679
:10541000FFF7BAFEFEE6B4F85C1099427FF4FAAEEC
:10542000136813F0200F3FF4F5AE022323672046E4
:10543000FFF7AAFEEEE600BF010000102001000405
:1054400079510008B4F85C10B4F85E309BB2C91A08
:1054500089B2B4F85E309BB2002B3FF4DBAE00297A
:105460003FF4D8AE226852E8003F23F4907342E83C
:1054700000300028F6D1226802F1080353E8003F0B
:1054800023F0805323F00103083242E80030002863
:10549000F1D12023C4F88C300023E36663672268CF
:1054A00052E8003F23F0100342E800300028F6D114
:1054B000022323672046FFF767FEABE64FF4801315
:1054C0000B62204601F080F8A4E6A36F002B3FF4A6
:1054D000A1AE204698479DE62046FFF707FE99E6D5
:1054E000204601F073F895E6204601F06EF891E64B
:1054F00008B5B0F86030D0F88C20222A05D00268B8
:10550000936943F00803936108BD0268516ADBB2F6
:10551000826D0B401370836D01338365B0F85E308C
:105520009BB2013B9BB2A0F85E30B0F85E309BB2FC
:10553000002BE9D1026852E8003F23F4907342E85F
:1055400000310029F6D1026802F1080353E8003F58
:1055500023F00103083242E800310029F3D120236F
:10556000C0F88C300023436703670368164A9342F0
:105570000CD05B6813F4000F08D0026852E8003FBB
:1055800023F0806342E800310029F6D1C36E012B7D
:1055900016D10023C366026852E8003F23F01003CF
:1055A00042E800310029F6D10368DA6912F0100FE1
:1055B00001D010221A62B0F85C10FFF7E5FDA3E7F6
:1055C00002F0E0FFA0E700BF0080004008B5B0F89F
:1055D0006020D0F88C30222B05D00268936943F00C
:1055E0000803936108BD03685B6A816D13400B80FB
:1055F000836D02338365B0F85E309BB2013B9BB292
:10560000A0F85E30B0F85E309BB2002BEAD10268A1
:1056100052E8003F23F4907342E800310029F6D1AC
:10562000026802F1080353E8003F23F00103083247
:1056300042E800310029F3D12023C0F88C30002348
:10564000436703670368164A93420CD05B6813F400
:10565000000F08D0026852E8003F23F0806342E860
:1056600000310029F6D1C36E012B16D10023C36689
:10567000026852E8003F23F0100342E8003100299D
:10568000F6D10368DA6912F0100F01D010221A6205
:10569000B0F85C10FFF778FDA4E702F073FFA1E714
:1056A000008000402DE9F843B0F860500368D3F85B
:1056B0001C90D3F800809F68D0F88C20222A05D057
:1056C0009A6942F008029A61BDE8F8830446B0F88E
:1056D000686008E0D4F89030002B4DD1B4F85E300B
:1056E0009BB2002B4FD0002E00F0958019F0200FB8
:1056F00000F091802368596AEBB2A26D0B401370E1
:10570000A36D0133A365B4F85E309BB2013B9BB23D
:10571000A4F85E302368D3F81C9019F0070FDDD091
:1057200019F0010F09D018F4807F06D001221A6207
:10573000D4F890301343C4F8903019F0020F0BD016
:1057400017F0010F08D0236802221A62D4F89030B3
:1057500043F00403C4F8903019F0040FBAD017F0E6
:10576000010FB7D0236804221A62D4F8903043F0B6
:105770000203C4F89030ADE72046FFF7D0FC0023C9
:10578000C4F89030AAE7226852E8003F23F48073FF
:1057900042E800310029F6D1226802F1080353E8FB
:1057A000003F23F0805323F00103083242E8003128
:1057B0000029F1D12023C4F88C30002363672367CC
:1057C0002368284A93420CD05B6813F4000F08D07A
:1057D000226852E8003F23F0806342E8003100294C
:1057E000F6D1E36E012B39D10023E366226852E83B
:1057F000003F23F0100342E800310029F6D123686E
:10580000DA6912F0100F01D010221A62B4F85C109D
:105810002046FFF7B9FCB4F85E309BB2002B3FF492
:1058200053AFB4F868209A427FF64EAF226802F177
:10583000080353E8003F23F08053083242E8003168
:105840000029F3D1084B6367226852E8003F43F018
:10585000200342E800310029F6D135E7204602F066
:1058600091FED8E700800040F15400082DE9F8438C
:10587000B0F860500368D3F81C90D3F800809F689C
:10588000D0F88C20222A05D09A6942F008029A6149
:10589000BDE8F8830446B0F8686008E0D4F89030BA
:1058A000002B4CD1B4F85E309BB2002B4ED0002EB2
:1058B00000F0948019F0200F00F0908023685B6A5C
:1058C000A26D2B401380A36D0233A365B4F85E3044
:1058D0009BB2013B9BB2A4F85E302368D3F81C90C6
:1058E00019F0070FDED019F0010F09D018F4807FEE
:1058F00006D001221A62D4F890301343C4F89030D5
:1059000019F0020F0BD017F0010F08D02368022204
:105910001A62D4F8903043F00403C4F8903019F0C0
:10592000040FBBD017F0010FB8D0236804221A620D
:10593000D4F8903043F00203C4F89030AEE720462C
:10594000FFF7EDFB0023C4F89030ABE7226852E884
:10595000003F23F4807342E800310029F6D1226829
:1059600002F1080353E8003F23F0805323F00103C2
:10597000083242E800310029F1D12023C4F88C30EC
:105980000023636723672368284A93420CD05B682F
:1059900013F4000F08D0226852E8003F23F0806320
:1059A00042E800310029F6D1E36E012B39D1002302
:1059B000E366226852E8003F23F0100342E800311A
:1059C0000029F6D12368DA6912F0100F01D01022F5
:1059D0001A62B4F85C102046FFF7D6FBB4F85E30CC
:1059E0009BB2002B3FF454AFB4F868209A427FF684
:1059F0004FAF226802F1080353E8003F23F08053C1
:105A0000083242E800310029F3D1094B636722686C
:105A100052E8003F43F0200342E800310029F6D16C
:105A200036E7204602F0AEFDD8E700BF0080004018
:105A3000CD55000808B5806A01230367C36E012BAA
:105A400002D0FFF76BFB08BDB0F85C104908FFF708
:105A50009BFBF8E708B50346806A1B681B6813F0D8
:105A6000200F29D10023A0F85E30026852E8003FE1
:105A700023F4807342E800310029F6D1026802F174
:105A8000080353E8003F23F00103083242E80031E5
:105A90000029F3D1026802F1080353E8003F23F024
:105AA0004003083242E800310029F3D12023C0F836
:105AB0008C30C36E012B07D000230367C36E012B0C
:105AC0000CD002F05FFD08BD026852E8003F23F0F1
:105AD000100342E800310029F6D1EDE7B0F85C1080
:105AE000FFF752FBEFE7000070B5044601688368DA
:105AF0000269134342691343C26913430868964A13
