:020000040800F2
:1000000000000220191A0008291800082B180008FF
:100010002D1800082F1800083118000800000000F3
:10002000000000000000000000000000331800087D
:1000300035180008000000003718000839180008BB
:10004000691A0008691A0008691A0008691A000884
:10005000691A0008691A0008691A0008691A000874
:10006000691A0008691A0008691A0008691A000864
:10007000691A0008691A0008691A0008691A000854
:10008000691A0008691A0008691A0008691A000844
:10009000691A00083D1800084D180008691A000880
:1000A000691A0008691A0008691A0008691A000824
:1000B000691A0008691A00085D180008691A000822
:1000C000691A0008691A0008691A0008691A000804
:1000D000691A0008691A0008691A00086D180008F2
:1000E000691A0008691A0008691A0008691A0008E4
:1000F000691A0008691A0008691A0008691A0008D4
:10010000691A0008691A0008691A0008691A0008C3
:10011000691A0008691A0008691A0008691A0008B3
:10012000691A0008691A0008691A0008691A0008A3
:10013000691A0008691A0008691A0008691A000893
:10014000691A0008691A0008691A0008691A000883
:10015000691A0008691A0008691A0008691A000873
:10016000691A0008691A0008691A0008691A000863
:10017000691A0008691A0008691A0008691A000853
:10018000691A0008691A0008691A0008691A000843
:10019000691A000800000000691A0008691A0008BE
:1001A000691A0008691A0008691A0008691A000823
:1001B000691A0008691A0008691A0008691A000813
:1001C000691A0008691A0008691A0008691A000803
:0801D000691A0008691A000811
:1002000081F0004102E000BF83F0004330B54FEAC7
:1002100041044FEA430594EA050F08BF90EA020F34
:100220001FBF54EA000C55EA020C7FEA645C7FEAC7
:10023000655C00F0E2804FEA5454D4EB5555B8BFEA
:100240006D420CDD2C4480EA020281EA030382EA5B
:10025000000083EA010180EA020281EA0303362DED
:1002600088BF30BD11F0004F4FEA01314FF4801CC0
:100270004CEA113102D0404261EB410113F0004FD2
:100280004FEA03334CEA133302D0524263EB430389
:1002900094EA050F00F0A780A4F10104D5F1200E27
:1002A0000DDB02FA0EFC22FA05F2801841F1000182
:1002B00003FA0EF2801843FA05F359410EE0A5F156
:1002C00020050EF1200E012A03FA0EFC28BF4CF087
:1002D000020C43FA05F3C01851EBE37101F000453D
:1002E00007D54FF0000EDCF1000C7EEB00006EEB4A
:1002F0000101B1F5801F1BD3B1F5001F0CD34908D4
:100300005FEA30004FEA3C0C04F101044FEA44522A
:1003100012F5800F80F09A80BCF1004F08BF5FEAB1
:10032000500C50F1000041EB045141EA050130BD91
:100330005FEA4C0C404141EB0101013C28BFB1F5A3
:10034000801FE9D291F0000F04BF01460020B1FAEE
:1003500081F308BF2033A3F10B03B3F120020CDAC1
:100360000C3208DD02F1140CC2F10C0201FA0CF09F
:1003700021FA02F10CE002F11402D8BFC2F1200C04
:1003800001FA02F120FA0CFCDCBF41EA0C019040BA
:10039000E41AA2BF01EB0451294330BD6FEA040403
:1003A0001F3C1CDA0C340EDC04F11404C4F12002EE
:1003B00020FA04F001FA02F340EA030021FA04F300
:1003C00045EA030130BDC4F10C04C4F1200220FA57
:1003D00002F001FA04F340EA0300294630BD21FA95
:1003E00004F0294630BD94F0000F83F4801306BF5B
:1003F00081F480110134013D4EE77FEA645C18BF4F
:100400007FEA655C29D094EA050F08BF90EA020FE5
:1004100005D054EA000C04BF1946104630BD91EADD
:10042000030F1EBF0021002030BD5FEA545C05D1E0
:100430004000494128BF41F0004130BD14F580041F
:100440003CBF01F5801130BD01F0004545F0FE4193
:1004500041F470014FF0000030BD7FEA645C1ABFC8
:10046000194610467FEA655C1CBF0B46024650EAFF
:10047000013406BF52EA033591EA030F41F400212B
:1004800030BD00BF90F0000F04BF0021704730B5B1
:100490004FF4806404F132044FF000054FF0000186
:1004A00050E700BF90F0000F04BF0021704730B547
:1004B0004FF4806404F1320410F0004548BF40421C
:1004C0004FF000013EE700BF42004FEAE2014FEA71
:1004D00031014FEA02701FBF12F07F4393F07F4F4C
:1004E00081F06051704732F07F4208BF704793F04F
:1004F0007F4F04BF41F40021704730B54FF4607462
:1005000001F0004521F000411CE700BF50EA010264
:1005100008BF704730B54FF000050AE050EA01020D
:1005200008BF704730B511F0004502D5404261EB7D
:1005300041014FF4806404F132045FEA915C3FF4BE
:10054000D8AE4FF003025FEADC0C18BF03325FEA5B
:10055000DC0C18BF033202EBDC02C2F1200300FA0C
:1005600003FC20FA02F001FA03FE40EA0E0021FA31
:1005700002F11444BDE600BF70B54FF0FF0C4CF41F
:10058000E06C1CEA11541DBF1CEA135594EA0C0FD1
:1005900095EA0C0F00F0DEF82C4481EA030621EA0C
:1005A0004C5123EA4C5350EA013518BF52EA033547
:1005B00041F4801143F4801338D0A0FB02CE4FF0F9
:1005C0000005E1FB02E506F00042E0FB03E54FF029
:1005D0000006E1FB03569CF0000F18BF4EF0010E21
:1005E000A4F1FF04B6F5007F64F5407404D25FEA1D
:1005F0004E0E6D4146EB060642EAC62141EA5551D0
:100600004FEAC52040EA5E504FEACE2EB4F1FD0C11
:1006100088BFBCF5E06F1ED8BEF1004F08BF5FEA8F
:10062000500E50F1000041EB045170BD06F0004641
:1006300046EA010140EA020081EA0301B4EB5C04EE
:10064000C2BFD4EB0C0541EA045170BD41F48011E6
:100650004FF0000E013C00F3AB8014F1360FDEBF0B
:10066000002001F0004170BDC4F10004203C35DAE7
:100670000C341BDC04F11404C4F1200500FA05F36A
:1006800020FA04F001FA05F240EA020001F000420B
:1006900021F0004110EBD37021FA04F642EB060181
:1006A0005EEA430E08BF20EAD37070BDC4F10C04AB
:1006B000C4F1200500FA04F320FA05F001FA04F26F
:1006C00040EA020001F0004110EBD37041F100015B
:1006D0005EEA430E08BF20EAD37070BDC4F1200566
:1006E00000FA05F24EEA020E20FA04F301FA05F2CE
:1006F00043EA020321FA04F001F0004121FA04F276
:1007000020EA020000EBD3705EEA430E08BF20EA45
:10071000D37070BD94F0000F0FD101F0004640007F
:1007200041EB010111F4801F08BF013CF7D041EA01
:10073000060195F0000F18BF704703F00046520005
:1007400043EB030313F4801F08BF013DF7D043EAD6
:100750000603704794EA0C0F0CEA135518BF95EA8C
:100760000C0F0CD050EA410618BF52EA4306D1D113
:1007700081EA030101F000414FF0000070BD50EA32
:10078000410606BF1046194652EA430619D094EABC
:100790000C0F02D150EA013613D195EA0C0F05D1A6
:1007A00052EA03361CBF104619460AD181EA0301FA
:1007B00001F0004141F0FE4141F470014FF00000B2
:1007C00070BD41F0FE4141F4780170BD70B54FF04D
:1007D000FF0C4CF4E06C1CEA11541DBF1CEA1355CD
:1007E00094EA0C0F95EA0C0F00F0A7F8A4EB0504AF
:1007F00081EA030E52EA03354FEA013100F08880A6
:100800004FEA03334FF0805545EA131343EA12636E
:100810004FEA022245EA111545EA10654FEA002623
:100820000EF000419D4208BF964244F1FD0404F5DC
:10083000407402D25B084FEA3202B61A65EB030538
:100840005B084FEA32024FF480104FF4002CB6EBF5
:10085000020E75EB030E22BFB61A754640EA0C0075
:100860005B084FEA3202B6EB020E75EB030E22BFB5
:10087000B61A754640EA5C005B084FEA3202B6EBF6
:10088000020E75EB030E22BFB61A754640EA9C00B5
:100890005B084FEA3202B6EB020E75EB030E22BF85
:1008A000B61A754640EADC0055EA060E18D04FEA43
:1008B000051545EA16754FEA06164FEAC30343EAE3
:1008C00052734FEAC2025FEA1C1CC0D111F4801FB0
:1008D0000BD141EA00014FF000004FF0004CB6E7A9
:1008E00011F4801F04BF01430020B4F1FD0C88BF48
:1008F000BCF5E06F3FF6AFAEB5EB030C04BFB6EB53
:10090000020C5FEA500C50F1000041EB045170BD45
:100910000EF0004E4EEA113114EB5C04C2BFD4EB72
:100920000C0541EA045170BD41F480114FF0000EF6
:10093000013C90E645EA060E8DE60CEA135594EA72
:100940000C0F08BF95EA0C0F3FF43BAF94EA0C0F75
:100950000AD150EA01347FF434AF95EA0C0F7FF4EA
:1009600025AF104619462CE795EA0C0F06D152EA3E
:1009700003353FF4FDAE1046194622E750EA410622
:1009800018BF52EA43067FF4C5AE50EA41047FF433
:100990000DAF52EA43057FF4EBAE12E74FF0FF3C98
:1009A00006E000BF4FF0010C02E000BF4FF0010C69
:1009B0004DF804CD4FEA40024FEA41037FEA226C32
:1009C00018BF7FEA236C11D001B052EA530C18BF54
:1009D00090EA010F58BFB2EB030088BFC81738BFB9
:1009E0006FEAE17018BF40F0010070477FEA226CA7
:1009F00002D15FEA402C05D17FEA236CE4D15FEAA3
:100A0000412CE1D05DF8040B704700BF84460846D6
:100A10006146FFE70FB5FFF7C9FF002848BF10F197
:100A2000000F0FBD4DF808EDFFF7F4FF0CBF0120DC
:100A300000205DF808FB00BF4DF808EDFFF7EAFF66
:100A400034BF012000205DF808FB00BF4DF808ED21
:100A5000FFF7E0FF94BF012000205DF808FB00BF16
:100A60004DF808EDFFF7D2FF94BF012000205DF89C
:100A700008FB00BF4DF808EDFFF7C8FF34BF0120A9
:100A800000205DF808FB00BF53B94AB9002908BF30
:100A900000281CBF4FF0FF314FF0FF3000F074B959
:100AA000ADF1080C6DE904CE00F006F8DDF804E0C5
:100AB000DDE9022304B070472DE9F047089E0D469A
:100AC00004468846002B4DD18A42944668D9B2FA32
:100AD00082F252B101FA02F3C2F1200120FA01F1CF
:100AE0000CFA02FC41EA030894404FEA1C45210C31
:100AF000B8FBF5FE1FFA8CF705FB1E8341EA0343A2
:100B00000EFB07F199420BD91CEB03030EF1FF30EA
:100B100080F01E81994240F21B81AEF1020E6344C7
:100B20005B1AA4B2B3FBF5F005FB103344EA0344AF
:100B300000FB07F7A7420AD91CEB040400F1FF33BE
:100B400080F00881A74240F2058164440238E41B2A
:100B500040EA0E4000211EB1D4400023C6E9004304
:100B6000BDE8F0878B4208D9002E00F0EE8000210E
:100B7000C6E900050846BDE8F087B3FA83F100290D
:100B80004AD1AB4202D3824200F2F980841A65EB6B
:100B9000030301209846002EE2D0C6E90048DFE7B3
:100BA00002B9FFDEB2FA82F2002A40F09180A1EB96
:100BB0000C054FEA1C471FFA8CFE0121B5FBF7F329
:100BC00007FB1350250C45EA00450EFB03F0A84235
:100BD00008D91CEB050503F1FF3802D2A84200F248
:100BE000CB8043462D1AA4B2B5FBF7F007FB105596
:100BF00044EA05440EFB00FEA64508D91CEB04049C
:100C000000F1FF3502D2A64500F2BB802846A4EBD6
:100C10000E0440EA03409EE7C1F120078B4022FA10
:100C200007FC4CEA030C20FA07F405FA01F31C4315
:100C3000FD404FEA1C4900FA01F3B5FBF9F8200C1E
:100C40001FFA8CFE09FB185540EA054508FB0EF01B
:100C5000A84202FA01F20BD91CEB050508F1FF3A94
:100C600080F08880A84240F28580A8F1020865449F
:100C70002D1AA4B2B5FBF9F009FB105544EA05455D
:100C800000FB0EFEAE4508D91CEB050500F1FF3454
:100C90006CD2AE456AD90238654440EA0840A0FBF0
:100CA0000294A5EB0E05A542C846A64656D353D0DE
:100CB0005EB1B3EB080265EB0E0505FA07F722FA01
:100CC00001F3CD401F43C6E900750021BDE8F08760
:100CD000C2F1200320FA03F10CFA02FC25FA03F317
:100CE00095400D434FEA1C471FFA8CFEB3FBF7F10A
:100CF00007FB11302B0C43EA004301FB0EF0984236
:100D000004FA02F408D91CEB030301F1FF382FD2D7
:100D100098422DD9023963441B1AADB2B3FBF7F0E8
:100D200007FB103345EA034500FB0EF3AB4208D93D
:100D30001CEB050500F1FF3816D2AB4214D902387E
:100D40006544ED1A40EA014138E73146304607E78D
:100D50008646E5E61846FAE64B45A9D2B9EB020805
:100D600064EB0C0E0138A3E74046EAE7204694E71F
:100D70004146D1E7D0467BE7023B654432E708466F
:100D800009E76444023842E7704700BF00000000F2
:100D90000000000000000000000000000000000053
:100DA0000000000000000000000000000000000043
:100DB0000000000000000000000000000000000033
:100DC00090F800F06DE9024520F007016FF0000C8B
:100DD00010F0070491F820F040F049804FF0000433
:100DE0006FF00700D1E9002391F840F000F108000E
:100DF00082FA4CF2A4FA8CF283FA4CF3A2FA8CF346
:100E00004BBBD1E9022382FA4CF200F10800A4FAAC
:100E10008CF283FA4CF3A2FA8CF3E3B9D1E9042300
:100E200082FA4CF200F10800A4FA8CF283FA4CF337
:100E3000A2FA8CF37BB9D1E9062301F1200182FAF1
:100E40004CF200F10800A4FA8CF283FA4CF3A2FAF7
:100E50008CF3002BC6D0002A04BF04301A4612BA05
:100E6000B2FA82F2FDE8024500EBD2007047D1E908
:100E7000002304F00305C4F100004FEAC50514F097
:100E8000040F91F840F00CFA05F562EA05021CBF68
:100E900063EA050362464FF00004A9E70000000082
:100EA00001F0FF01102A2BDB10F0070F08D010F81B
:100EB000013B013A8B422DD010F0070F42B3F6D11F
:100EC000F0B441EA012141EA014122F007047FF038
:100ED00000070023F0E80256083C85EA010586EA8F
:100EE000010685FA47F5A3FA87F586FA47F6A5FACB
:100EF00087F68EB9EED1F0BC01F0FF0102F00702D7
:100F000032B110F8013B013A83EA010313B1F8D181
:100F10000020704701387047002D06BF3546033862
:100F2000073815F0010F07D1013015F4807F02BF9B
:100F3000013015F4C03F0130F0BC0138704700BFEC
:100F4000844641EA000313F003036DD1403A41D3D4
:100F500051F8043B40F8043B51F8043B40F8043B93
:100F600051F8043B40F8043B51F8043B40F8043B83
:100F700051F8043B40F8043B51F8043B40F8043B73
:100F800051F8043B40F8043B51F8043B40F8043B63
:100F900051F8043B40F8043B51F8043B40F8043B53
:100FA00051F8043B40F8043B51F8043B40F8043B43
:100FB00051F8043B40F8043B51F8043B40F8043B33
:100FC00051F8043B40F8043B51F8043B40F8043B23
:100FD000403ABDD2303211D351F8043B40F8043BC3
:100FE00051F8043B40F8043B51F8043B40F8043B03
:100FF00051F8043B40F8043B103AEDD20C3205D3D3
:1010000051F8043B40F8043B043AF9D2043208D0CA
:10101000D2071CBF11F8013B00F8013B01D30B883C
:1010200003806046704700BF082A13D38B078DD01A
:1010300010F003038AD0C3F10403D21ADB071CBFEC
:1010400011F8013B00F8013B80D331F8023B20F856
:10105000023B7BE7043AD9D3013A11F8013B00F88F
:10106000013BF9D20B7803704B7843708B78837017
:10107000604670474FF0FF3C06E000BF4FF0010CA8
:1010800002E000BF4FF0010C4DF804CD4FEA410CD7
:101090007FEA6C5C4FEA430C18BF7FEA6C5C1BD0A4
:1010A00001B050EA410C0CBF52EA430C91EA030F25
:1010B00002BF90EA020F0020704710F1000F91EA82
:1010C000030F58BF994208BF90422CBFD8176FEA50
:1010D000E37040F0010070474FEA410C7FEA6C5C1E
:1010E00002D150EA013C07D14FEA430C7FEA6C5C25
:1010F000D6D152EA033CD3D05DF8040B704700BF51
:101100008446104662468C461946634600E000BF9E
:1011100001B5FFF7B7FF002848BF10F1000F01BD70
:101120004DF808EDFFF7F4FF0CBF012000205DF83B
:1011300008FB00BF4DF808EDFFF7EAFF34BF0120C0
:1011400000205DF808FB00BF4DF808EDFFF7E0FF59
:1011500094BF012000205DF808FB00BF4DF808EDAA
:10116000FFF7CEFF94BF012000205DF808FB00BF11
:101170004DF808EDFFF7C4FF34BF012000205DF8F3
:1011800008FB00BF4FEA410C7FEA6C5C02D150EAD9
:10119000013C0AD14FEA430C7FEA6C5C02D152EA6F
:1011A000033C02D14FF0000070474FF00100704740
:1011B0004FEA410212F5001215D211D56FF478737F
:1011C000B3EB625212D94FEAC12343F0004343EA22
:1011D000505311F0004F23FA02F018BF40427047FD
:1011E0004FF00000704750EA013005D111F0004087
:1011F00008BF6FF0004070474FF00000704700BF1D
:101200004A0011D212F5001211D20DD56FF4787385
:10121000B3EB62520ED44FEAC12343F0004343EADA
:10122000505323FA02F070474FF00000704750EA25
:10123000013002D14FF0FF3070474FF0000070478F
:101240004FEA4102B2F1E04324BFB3F5001CDCF1E8
:10125000FE5C0DD901F0004C4FEAC0024CEA507020
:10126000B2F1004F40EB830008BF20F0010070474F
:1012700011F0804F21D113F13872BCBF01F0004052
:10128000704741F480114FEA5252C2F11802C2F184
:10129000200C10FA0CF320FA02F018BF40F0010005
:1012A0004FEAC1234FEAD32303FA0CFC40EA0C00B7
:1012B00023FA02F34FEA4303CCE77FEA625307D1F4
:1012C00050EA01331EBF4FF0FE4040F4400070472B
:1012D00001F0004040F0FE4040F40000704700BFC5
:1012E0004FEA40024FEA41037FEA226C02D15FEAF3
:1012F000402C08D17FEA236C02D15FEA412C02D155
:101300004FF0000070474FF00100704738B50546B8
:101310000C462846214600220023FFF70BFF28B980
:1013200028462146BDE8384000F00AB8284604F1B6
:10133000004100F005F8404261EB410138BD00BFBB
:10134000D0B50C4B002206460F46FFF715F9FFF704
:1013500057FF0446FFF796F8074B0022FFF70CF9FA
:1013600002460B4630463946FEF74EFFFFF748FF70
:101370002146D0BD0000F03D0000F04110B504460C
:1013800000F0D4FD2268536D43F0010353652268D9
:10139000536D43F00203536500220121204600F003
:1013A0008FFE00220821204600F08AFE10BD2DE9A4
:1013B000F04186B005460F4616464FF08042009237
:1013C0004FF00108CDF80480002402940222039219
:1013D00004930C9B0593694600F078FD00940194FA
:1013E0000294CDF80C80049705966946284600F0D3
:1013F0006DFD06B0BDE8F08110B586B000231A4639
:1014000003E021290AD00133DBB2C72B20D81B49C6
:10141000C95C3D29F5D15A1CD2B2F2E7013BDBB2DF
:101420001649895C2D2915D000240021934215D33B
:10143000122913D81148805C80B101F1010C1831D8
:10144000694401F8140C0132D2B25FFA8CF1EDE775
:101450000023E5E70132D2B20124E6E701F11803E7
:101460006B44002103F8141C01A804F019FD0CB909
:1014700006B010BD00F10040FAE700BF600B00208D
:1014800010B50446FFF7B8FF012C00D010BD2A4B61
:101490001B78502B1BD0492B20D0442B25D0502B10
:1014A0002AD0492B2FD0442B34D0532B39D0502B5A
:1014B000ECD1214B5B786F2BE8D11F4B9B78732BC2
:1014C000E4D11E4B19681E4A11601860DEE71A4A03
:1014D0005278312ADFD11B4B1860D7E7164A527871
:1014E000312ADAD1174B5860D0E7134A5278312AA3
:1014F000D5D1144B9860C9E70F4A5278322AD0D11F
:10150000114B1860C2E70C4A5278322ACBD10E4BED
:101510005860BBE7084A5278322AC6D10A4B986015
:10152000B4E7054A5278702AC1D1034A9278652AF5
:10153000BDD1064B1860A9E7600B0020080A002007
:101540000C0A0020B8090020E0090020100A002041
:1015500038B51048104B0360002343608360C360BC
:101560000374437483741125456101248461062149
:10157000C1610322026245628462C1620263082281
:1015800042638263C36300F0B7FB00B938BD00F06B
:1015900093F8FBE7140A00200064004010B59CB0EB
:1015A000044600211791189119911A911B91542208
:1015B00002A803F049FB2268224B9A4201D01CB0DA
:1015C00010BD4FF4805302934FF00073109302A8A4
:1015D00001F068FC002832D11B4B9A6D42F000727A
:1015E0009A659A6D02F000720092009ADA6C42F0ED
:1015F0000102DA64DB6C03F001030193019B4FF4F9
:10160000C053179302231893002419941A940923A2
:101610001B9317A94FF0904000F0A2FE2246012133
:10162000152000F069FA152000F09EFA22460121EB
:10163000162000F061FA162000F096FABFE700F0DD
:101640003BF8C9E7006400400010024084B0134B2F
:10165000DA6C42F02002DA64DA6C02F020020092C6
:10166000009ADA6C42F01002DA64DA6C02F01002CE
:101670000192019ADA6C42F00202DA64DA6C02F04A
:1016800002020292029ADA6C42F00102DA64DB6C26
:1016900003F001030393039B04B070470010024062
:1016A00008B50268034B9A4200D008BD00F0ECF97F
:1016B000FBE700BF0008004072B6FEE700B595B03A
:1016C0003822002106A803F0BFFA00200190029002
:1016D00003900490059000F031FF012306934FF42E
:1016E0008033079302230D9303220E920C220F9254
:1016F0005522109211931293139306A800F0D8FF6D
:1017000080B90F23019303230293002303930493CF
:10171000059304210DEB010001F080FA20B915B00A
:101720005DF804FBFFF7C8FFFFF7C6FF08B500F040
:101730009CF9FFF7C3FFFFF789FFFFF709FF00F0F0
:10174000D3F803F0C7F9044803F032FB4FF4FA7002
:1017500000F0ACF9F7E700BF70C8000800B583B02F
:101760000B4B1A6E42F001021A661A6E02F0010269
:101770000092009A9A6D42F080529A659B6D03F038
:1017800080530193019B00F05FFF03B05DF804FB01
:101790000010024030B589B004461E4B9A6D42F0ED
:1017A00004029A659B6D03F004030193019B02A957
:1017B00003A801F059FB01F033FB03461648A0FBD8
:1017C00003239B0C013B1548154A026040F2E732A7
:1017D000C260436000230361836001F0DDFE0546C3
:1017E00010B1284609B030BD0C4801F019FD05467E
:1017F0000028F6D11E2000F0B7F90F2C01D90125E1
:10180000EFE7002221461E2000F076F9054B1C6010
:10181000E7E700BF0010024083DE1B43780A002088
:101820000008004008000020FEE7FEE7FEE7FEE7B4
:10183000FEE77047704770477047000008B50248E0
:1018400000F0CAFC08BD00BF140A002008B5024819
:1018500000F0C2FC08BD00BF140A002008B5024811
:1018600001F02CFD08BD00BF780A002008B5024831
:1018700001F012FF08BD00BFC80A00200120704718
:1018800008B503F0B7F9162303604FF0FF3008BD29
:1018900008B54FF0FF31FFF7F3FFFEE710B5034641
:1018A0000C4A0D490D48006840B10C4800680344DB
:1018B000521A934206D8094A136010BD0748084CD3
:1018C0000460F2E703F096F90C2303604FF0FF3059
:1018D000F3E700BF0000022000040000C40A00205B
:1018E000780C00207047000008B51748174B0360BC
:1018F0004FF4E133436000238360C36003610C2233
:1019000042618361C36103624362836202F0ECFE61
:1019100070B900210C4803F027F860B900210A488B
:1019200003F047F850B9084802F0FFFF48B908BD76
:10193000FFF7C2FEEDE7FFF7BFFEEFE7FFF7BCFEE4
:10194000F1E7FFF7B9FEF2E7C80A002000480040BF
:1019500070B59EB00446002119911A911B911C91FB
:101960001D91542204A803F06FF92268264B9A4275
:1019700001D01EB070BD0423049304A801F092FAB4
:1019800000283DD1214B9A6D42F480229A659A6DD0
:1019900002F480220192019ADA6C42F01002DA64B9
:1019A000DA6C02F010020292029ADA6C42F0020241
:1019B000DA64DB6C03F002030393039B4FF40043F0
:1019C000199302261A9600241B941C9407251D9532
:1019D00019A90F4800F0C4FC4FF4806319931A96BC
:1019E0001B941C941D9519A90A4800F0B9FC2246C5
:1019F0002146272000F080F8272000F0B5F8B8E74E
:101A0000FFF75AFEBEE700BF00480040001002404A
:101A100000100048000400480D488546FFF762FFAB
:101A20000C480D490D4A002302E0D458C450043339
:101A3000C4188C42F9D30A4A0A4C002301E013600F
:101A40000432A242FBD303F0DBF8FFF76FFEFEE7A0
:101A50000000022000000020B8090020F8CE000895
:101A6000B8090020740C0020FEE710B5032000F038
:101A700031F80F20FFF78EFE10B10124204610BD73
:101A80000446FFF76BFEF9E7034A13680349096848
:101A90000B441360704700BF5C0B00200400002063
:101AA000014B1868704700BF5C0B002038B5044636
:101AB000FFF7F6FF0546B4F1FF3F02D0044B1B6869
:101AC0001C44FFF7EDFF401BA042FAD338BD00BF16
:101AD00004000020074AD36823F4E0631B041B0CB6
:101AE000000200F4E060034343F0BF6343F40033BB
:101AF000D360704700ED00E000B5194BDB68C3F31D
:101B00000223C3F1070CBCF1040F28BF4FF0040CF3
:101B100003F1040EBEF1060F18D9033B4FF0FF3E50
:101B20000EFA0CFC21EA0C0199400EFA03F322EAAA
:101B30000303194300280BDB0901C9B200F160401F
:101B400000F5614080F800135DF804FB0023E5E731
:101B500000F00F000901C9B2024B1954F4E700BFAD
:101B600000ED00E014ED00E0002807DB00F01F02AC
:101B7000400901239340024A42F82030704700BFD9
:101B800000E100E0034690F82520D2B2022A09D0F5
:101B90000422C2630120012283F82520002283F859
:101BA0002420704701680A6822F00E020A60816CE6
:101BB0000A6822F480720A6001680A6822F0010251
:101BC0000A60426C02F01F01006C01228A404260F0
:101BD000DA6C196D51605A6D42B1116821F480714F
:101BE00011609A6DD96D51600020D4E70020D2E7D2
:101BF00008B590F82530DBB2022B09D00423C3636B
:101C0000012380F82530002280F82420184608BDE2
:101C10000268136823F00E0313600268136823F050
:101C200001031360826C136823F480731360436CA8
:101C300003F01F02016C012393404B60C36C026DE3
:101C40005A60436D33B11A6822F480721A60836D52
:101C5000C26D5A60012380F82530002380F82430BB
:101C6000836B13B198470020D1E70020CFE7000035
:101C700002681D4B9A422AD01C491D4B9A4228D01B
:101C80000164D2F8803023F4F813D0F834C043EA6A
:101C90000C43C2F8803001F1700343640268D2F84B
:101CA000803023F07063D0F838C043EA0C63C2F888
:101CB000803001F1B003836401F5C473C36401F59E
:101CC0001873036501F51E7343650B4607E0094968
:101CD000D3E701F5D461D3E7002243F8042B01F5E3
:101CE00054729A42F8D870470068004000A400403F
:101CF000006C004050A70040002800F0E38038B599
:101D0000044690F85C30D3B12268936923F0100345
:101D10009361FFF7C5FE054623689A6912F0080F24
:101D200012D0FFF7BDFE401B0A28F5D9236E43F001
:101D300001032366032384F85C30012038BD80F85A
:101D40005D30FFF72BFCDFE79A6942F001029A61F0
:101D5000FFF7A6FE054623689A6912F0010F0DD120
:101D6000FFF79EFE401B0A28F5D9236E43F00103BE
:101D70002366032384F85C300120DFE79A6942F090
:101D800002029A612268504B9A4242D0237C012B76
:101D900045D02268936943F040039361637C012B33
:101DA00043D02268936923F480439361A37C012B81
:101DB00041D02268936943F4805393612268936908
:101DC00023F44073A1680B4393612268936923F065
:101DD000A40393612268136923F010031361E3687D
:101DE000012B2ED0002B31D0022B54D022689369C6
:101DF00043F0800393612268136943F01003136179
:101E0000E368032B22D12268936943F02003936196
:101E10001CE06268A3F58063C3F80025B6E722687A
:101E2000936923F040039361B8E72268936943F410
:101E300080439361BAE72268936923F480539361E6
:101E4000BCE72268936943F004039361A3695A1EB7
:101E5000E369013B1B0243EA4263226A013A1343EE
:101E60006269013A216843EA0243CB61A368B3F592
:101E7000407F16D02268D2F8C030E16B0B43C2F825
:101E8000C0302046FFF7F4FE0020A0652066012345
:101E900084F85C3052E72268936943F02003936131
:101EA000D4E7A36A013BE26A013A43EA0223226BC8
:101EB000013A43EA0213626A013A216843EA0243A3
:101EC000CB60D7E7012070470064004090F85C3099
:101ED000013BDBB2012B05D9036E43F0020303661D
:101EE000012070470B687BB98A68CB68DB0643EA40
:101EF00082730A6943EA02434A691343026C4968E0
:101F000042F8213000207047CA680B6943EA4272E8
:101F10004B69D1F808C043EA8C73406C496800EB08
:101F2000C10C40F83120CCF80430EBE790F85C307D
:101F3000DBB2012B05D0036E43F0040303660120DE
:101F40007047022380F85C300268936923F0010334
:101F500093610023036618467047000070B590F83F
:101F60005C40E4B2022C40F0A28040290BD004680F
:101F7000D4F8985015F00F0F2DD1036E43F48073F1
:101F80000366012098E00468D4F8905015F00F0F14
:101F900005D1036E43F48073036601208CE0D4F80E
:101FA0009050C5F3006C15F0807F08D0D4F88050B5
:101FB000C5F3402C15F4007F01D04FF0010CD4F88C
:101FC0009040C4F301240CEB0405846C05EBC50CB4
:101FD00004EBCC0C1AE0D4F89850C5F3006C15F063
:101FE000807F08D0D4F88050C5F3002C15F4807F92
:101FF00001D04FF0010CD4F89840C4F301240CEB4D
:102000000405C46C05EBC50C04EBCC0CDCF80040FB
:1020100004F08044546074BBDCF80040C4F38A448C
:102020001460DCF8004004F000549460DCF80040D8
:1020300004F000441461BCF80440D461BCF80640CC
:1020400004F00F04D460DCF8044004F480145461FC
:10205000DCF8044004F4001494619CF8074004F098
:102060007F041462DCF80440E40F54620CF1080EA3
:102070004FF0000C0BE0DCF8004024F060441460EA
:10208000CFE71EF80C4003F80C400CF1010C0B4C90
:10209000D668A45D6445F4D8402904D00368C3F829
:1020A0009C50002008E00368C3F89450F9E7036EE1
:1020B00043F008030366012070BD00BF98C8000804
:1020C00090F85C30013BDBB2012B05D9036E43F085
:1020D000020303660120704770B40468A36D11F019
:1020E000070602D013F0010F23D011F0380F02D0F1
:1020F00013F0020F1DD011F4E07F02D013F0040F93
:1021000017D011F4F05F02D013F0080F11D011F4C2
:10211000604F02D013F0100F0BD011F4403F02D0EB
:1021200013F0200F05D011F47C0F06D013F0400FF0
:1021300003D1E56D45F00105E56516B113F0010F1A
:1021400023D111F0380F02D013F0020F1DD111F47A
:10215000E07F02D013F0040F17D111F4F05F02D02A
:1021600013F0080F11D111F4604F02D013F0100FCB
:102170000BD111F4403F02D013F0200F05D111F420
:102180007C0F07D013F0400F04D00468E36D43F0D8
:102190000203E36511F0800F05D00468D4F8DC3049
:1021A0001343C4F8DC3011F4807F05D00468D4F800
:1021B000E0301A43C4F8E0200268536D19435165BA
:1021C000002070BC70477047704770477047704779
:1021D00070477047704770472DE9F84F0446036811
:1021E0001A6D02F4E05A5A6D0AEA020A1A6D02F0F8
:1021F00007095A6D09EA02091A6D02F038085A6D8A
:1022000008EA02081E6D06F471065A6D16401F6D2D
:1022100007F460275A6D1740D3F854B01D6D15F0C0
:10222000400F02D01BF0400F41D115F4807F02D047
:102230001BF4807F40D1BAF1000F4AD1B9F1000FF1
:102240004FD1B8F1000F54D115F4007F02D01BF428
:10225000007F56D115F0800F02D01BF0800F58D1AF
:1022600015F4005F02D01BF4005F5ED115F4004F3F
:1022700002D01BF4004F60D115F4804F0AD01BF43C
:10228000804F07D023684FF480421A65236E43F0D5
:1022900080032366002F58D126B123681E65236E64
:1022A0001E432666236E002B56D1BDE8F88F4022D0
:1022B0001A65FFF78EFFB8E72368D3F8D810D3F874
:1022C000E0204FF48070186511402046FFF77EFF34
:1022D000B1E72368C3F850A051462046FFF773FFCB
:1022E000ACE72368C3F850904946204602F0CEFB85
:1022F000A7E72368C3F850804146204602F0D8FB88
:10230000A2E723684FF400721A652046FFF75CFFCE
:10231000A0E72368D3F8D410D3F8DC208020186518
:1023200011402046FFF751FF9AE723684FF400520F
:102330001A652046FFF74BFF98E723684FF40042E9
:102340001A652046FFF744FF96E723681F65394664
:102350002046FFF740FF9FE72046FFF73BFFA4E73B
:1023600070B582B0002365E085685E000324B44048
:1023700025EA0405CC68B4402C438460446824EA10
:102380000C0C4C68C4F300149C4044EA0C044460F8
:1023900061E0DD08083550F8256003F007044FEAD6
:1023A000840C0F2404FA0CF426EA040E0C6904FAD7
:1023B0000CF444EA0E0440F8254063E0052400E0F4
:1023C000002404FA0EF42C430CF1020C574D45F88E
:1023D0002C40574CA568D44325EA0206D1F804C026
:1023E0001CF4801F01D042EA0506514DAE60ED6835
:1023F00004EA0506D1F804C01CF4001F01D042EA2B
:1024000005064B4DEE606D6804EA0506D1F804C080
:102410001CF4003F01D042EA0506454D6E602D6870
:102420002C404E6816F4803F01D042EA0504404A31
:10243000146001330A6832FA03F474D04FF0010CCF
:102440000CFA03FC1CEA0202F3D04C6804F003040B
:10245000013C012C88D94C6804F00304032C0CD0F7
:10246000C4685D004FF0030C0CFA05FC24EA0C0C68
:102470008C68AC4044EA0C04C4604C6804F003046B
:10248000022C86D004684FEA430E4FF0030C0CFA7E
:102490000EFC24EA0C0C4C6804F0030404FA0EF45D
:1024A00044EA0C0404604C6814F4403FC1D0214C51
:1024B000256E45F001052566246E04F001040194A3
:1024C000019C4FEA930C0CF10205184C54F825506E
:1024D00003F003044FEA840E0F2404FA0EF425EAF5
:1024E0000405B0F1904F3FF46BAF134CA04212D0F3
:1024F00004F58064A04210D004F58064A0420ED0A0
:1025000004F58064A0420CD004F58064A0423FF43E
:1025100055AF062455E7012453E7022451E703246D
:102520004FE704244DE702B070BD00BF000001403A
:10253000000401400010024000040048002836D189
:102540003E4B1B6803F4C063B3F5806F08D03B4A71
:10255000D2F8803023F48073C2F8803000207047B6
:10256000364AD2F8803023F48073C2F88030136882
:1025700023F4C06343F400731360314B1B683222B1
:1025800002FB03F32F4AA2FB03239B0C013300E061
:10259000013B2A4A526912F4806F01D0002BF7D117
:1025A000264B5B6913F4806F44D100207047B0F56F
:1025B000007F08D0214A136823F4C06343F480638A
:1025C0001360002070471D4B1B6803F4C063B3F514
:1025D000806F08D0194AD2F8803043F48073C2F873
:1025E000803000207047154AD2F8803043F4807361
:1025F000C2F88030136823F4C06343F4007313609F
:102600000F4B1B68322202FB03F30E4AA2FB03238B
:102610009B0C013300E0013B084A526912F4806FC1
:1026200001D0002BF7D1054B5B6913F4806F03D108
:10263000002070470320704703207047007000405F
:102640000000002083DE1B43024A936843F480436A
:102650009360704700700040124BDA6802F003028A
:10266000D868C0F30310431C032A11D00E48B0FBF6
:10267000F3F00C4BDB68C3F3062303FB00F0094BBC
:10268000DB68C3F3416301335B00B0FBF3F07047D9
:102690000648B0FBF3F0034BDB68C3F3062303FBF0
:1026A00000F0ECE7001002400024F400006CDC02B3
:1026B000002800F04F8270B582B00446036813F022
:1026C000010F37D0A44A936803F00C03D26802F0DC
:1026D00003020C2B23D0082B23D06368B3F5803F73
:1026E0004ED0B3F5A02F51D09B4B1A6822F4803204
:1026F0001A601A6822F480221A606368002B52D094
:10270000FFF7CEF90546944B1B6813F4003F11D137
:10271000FFF7C6F9401B6428F5D9032023E2032AFA
:10272000D9D18D4B1B6813F4003F03D06368002B95
:1027300000F01282236813F0020F5DD0864A93687E
:1027400003F00C03D26802F003020C2B3AD0042BE6
:102750003AD0E368002B75D07F4A136843F4807346
:102760001360FFF79DF905467B4B1B6813F4806FE0
:102770005FD1FFF795F9401B0228F5D90320F2E15C
:10278000754A136843F480331360B6E703F180435E
:10279000A3F53C331A6842F480221A601A6842F4A6
:1027A00080321A60A9E7FFF77BF905466A4B1B6880
:1027B00013F4003FBED0FFF773F9401B6428F5D92E
:1027C0000320D0E1022AC2D1634B1B6813F4806F4F
:1027D00003D0E368002B00F0C1815F4A536823F007
:1027E000FE43216943EA016353605C4B1868FEF7BE
:1027F000D1FF002840F0B481236813F0080F4CD0BB
:1028000063699BB3544AD2F8943043F00103C2F891
:102810009430FFF745F905464F4BD3F8943013F049
:10282000020F3AD1FFF73CF9401B0228F4D90320EC
:1028300099E1494A536823F0FE43216943EA016361
:102840005360D9E7444A136823F480731360FFF799
:1028500027F90546404B1B6813F4806FCCD0FFF777
:102860001FF9401B0228F5D903207CE13A4AD2F82F
:10287000943023F00103C2F89430FFF711F90546B4
:10288000354BD3F8943013F0020F06D0FFF708F958
:10289000401B0228F4D9032065E1236813F0040FDC
:1028A00000F081802C4B9B6D13F0805F36D12A4B5A
:1028B0009A6D42F080529A659B6D03F080530193AC
:1028C000019B0125264B1B6813F4807F28D0A36849
:1028D000012B39D0052B45D01F4BD3F8902022F087
:1028E0000102C3F89020D3F8902022F00402C3F82C
:1028F0009020A368002B43D0FFF7D2F80646164B72
:10290000D3F8903013F0020F4CD1FFF7C9F8801BB9
:1029100041F288339842F2D9032024E10025D1E71F
:102920000F4A136843F480731360FFF7B9F8064643
:102930000B4B1B6813F4807FC9D1FFF7B1F8801BE4
:102940000228F5D903200EE1034AD2F8903043F073
:102950000103C2F89030CCE70010024008000020CC
:1029600000700040884BD3F8902042F00402C3F876
:102970009020D3F8902042F00102C3F89020B8E7ED
:10298000FFF78EF80646804BD3F8903013F0020F15
:1029900008D0FFF785F8801B41F288339842F2D9BE
:1029A0000320E0E0E5B9236813F0200F35D0A369D8
:1029B000E3B1754AD2F8983043F00103C2F8983079
:1029C000FFF76EF80546704BD3F8983013F0020FFE
:1029D00023D1FFF765F8401B0228F4D90320C2E099
:1029E000694A936D23F080539365DCE7664AD2F819
:1029F000983023F00103C2F89830FFF751F80546EC
:102A0000614BD3F8983013F0020F06D0FFF748F867
:102A1000401B0228F4D90320A5E0E369002B00F055
:102A2000A180594A926802F00C020C2A64D0022B51
:102A300013D0554A136823F080731360FFF730F802
:102A40000446514B1B6813F0007F4ED0FFF728F867
:102A5000001B0228F5D9032085E04B4A136823F0B8
:102A600080731360FFF71CF80546474B1B6813F093
:102A7000007F06D0FFF714F8401B0228F5D9032089
:102A800071E0414AD36841491940236A606A0138BC
:102A900043EA0013A06A43EA0023206B4008013890
:102AA00043EA4053606B4008013843EA4063E06A00
:102AB00043EAC0630B43D360136843F08073136031
:102AC000D36843F08073D360FEF7EAFF04462E4BD1
:102AD0001B6813F0007F06D1FEF7E2FF001B0228FF
:102AE000F5D903203FE000203DE0274AD168284B7C
:102AF0000B40D360002036E0012B36D0224BDB6840
:102B000003F00301226A914231D103F0F002616ABD
:102B10000139B2EB011F2CD103F4FE42A16AB2EBE2
:102B2000012F28D103F07842E16AB2EBC16F24D1C2
:102B300003F4C001226B5208013AB1EB425F1ED18F
:102B400003F0C063626B5208013AB3EB426F18D1D5
:102B5000002008E001207047012004E0012002E08D
:102B6000012000E0002002B070BD0120FBE7012041
:102B7000F9E70120F7E70120F5E70120F3E701205D
:102B8000F1E70120EFE700BF001002400C809F0139
:102B9000FCFFEEFE1E4B9B6803F00C03042B33D0AE
:102BA0001B4B9B6803F00C03082B2FD0184B9B6822
:102BB00003F00C030C2B01D000207047144BDA6893
:102BC00002F00302D868C0F30310431C032A11D09B
:102BD0001048B0FBF3F00E4BDB68C3F3062303FB96
:102BE00000F00B4BDB68C3F3416301335B00B0FBC8
:102BF000F3F070470848B0FBF3F0054BDB68C3F314
:102C0000062303FB00F0ECE70248704702487047D8
:102C1000001002400024F400006CDC02002800F0E8
:102C2000E680F8B50C460546744B1B6803F00F03AD
:102C30008B420BD2714A136823F00F030B431360CE
:102C4000136803F00F038B4240F0D3802E6816F018
:102C500001065FD06B68032B2FD0022B4DD0684B41
:102C60001B6813F4806F00F0C680FFF793FF654B7D
:102C700098424DD9624A936823F0F00343F08003F1
:102C8000936080265E4A936823F0030369680B43D0
:102C90009360FEF705FF0746594B9B6803F00C0352
:102CA0006A68B3EB820F35D0FEF7FAFEC01B41F223
:102CB00088339842F0D9032078E0514B1B6813F019
:102CC000007F01D1012071E0FFF7C6FC4D4B984217
:102CD0001AD94B4B9B6813F0F00F05D02E6816F0F5
:102CE0000206CFD0AB688BB9454A936823F0F00356
:102CF00043F0800393608026C4E7414B1B6813F4C4
:102D0000003FB2D1012051E00026BBE70026B9E721
:102D10000026B7E72B6813F0020F48D013F0040F1A
:102D200004D0374A936843F4E06393602B6813F050
:102D3000080F06D0324A936823F47C5343F4E063CF
:102D400093602F4A936823F0F003A9680B439360C4
:102D50002A4B1B6803F00F03A34230D82B6813F0F3
:102D6000040F06D0264A936823F4E063E9680B4316
:102D700093602B6813F0080F07D0214A936823F45F
:102D80006053296943EAC1039360FFF703FF1C4BBB
:102D90009B68C3F303131C4AD35C03F01F03D840A2
:102DA0001A4B18601A4B1868FEF7F4FCF8BD802E19
:102DB000CED1134A936823F0F0039360C8E70F4A1B
:102DC000136823F00F0323431360FEF769FE0646E2
:102DD0000A4B1B6803F00F03A342BFD0FEF760FE4F
:102DE000801B41F288339842F2D90320DEE70120AC
:102DF00070470120DAE70120D8E700BF0020024039
:102E00000010024000B4C40480C800080000002084
:102E100008000020014B1868704700BF0000002028
:102E200008B5FFF7F7FF054B9B68C3F30223044A7D
:102E3000D35C03F01F03D84008BD00BF0010024060
:102E400090C8000808B5FFF7E5FF054B9B68C3F382
:102E5000C223044AD35C03F01F03D84008BD00BF5F
:102E60000010024090C800080F2303600B4B9A68C3
:102E700002F0030242609A6802F0F00282609A68EF
:102E800002F4E062C2609B68DB0803F4E063036164
:102E9000034B1B6803F00F030B60704700100240E8
:102EA00000200240F0B583B00446036813F4002FFD
:102EB0006ED0354B9B6D13F0805F1ED1324B9A6DF7
:102EC00042F080529A659B6D03F080530193019B01
:102ED00001262E4A136843F480731360FEF7E0FD69
:102EE00005462A4B1B6813F4807F08D1FEF7D8FDF6
:102EF000401B0228F5D9032502E00026E9E700255A
:102F000045BB214BD3F8903013F4407315D0226D9C
:102F10009A4212D01C4AD2F8903023F44073D2F86F
:102F2000901041F48031C2F89010D2F8901021F442
:102F30008031C2F89010C2F8903013F0010F10D118
:102F400045B9114AD2F8903023F44073216D0B43F8
:102F5000C2F89030EEB10C4A936D23F08053936524
:102F600017E0FEF79DFD0746074BD3F8903013F0AE
:102F7000020FE5D1FEF794FDC01B41F28833984261
:102F8000F2D90325DCE700BF0010024000700040CA
:102F90000025236813F0010F08D09F4AD2F888302B
:102FA00023F0030361680B43C2F88830236813F0F1
:102FB000020F08D0984AD2F8883023F00C03A16899
:102FC0000B43C2F88830236813F0040F08D0924AEC
:102FD000D2F8883023F03003E1680B43C2F8883020
:102FE000236813F0080F08D08B4AD2F8883023F0FA
:102FF000C00321690B43C2F88830236813F0100F17
:1030000008D0854AD2F8883023F4407361690B43B5
:10301000C2F88830236813F0200F08D07E4AD2F817
:10302000883023F44063A1690B43C2F888302368D9
:1030300013F0400F08D0784AD2F8883023F4405378
:10304000E1690B43C2F88830236813F0800F08D081
:10305000714AD2F8883023F44043216A0B43C2F806
:103060008830236813F4807F08D06B4AD2F8883008
:1030700023F44033616A0B43C2F88830236813F4A9
:10308000003F08D0644AD2F89C3023F00303A16AC1
:103090000B43C2F89C30236813F4007F08D05E4ACB
:1030A000D2F8883023F44023E16A0B43C2F8883019
:1030B000236813F4806F0CD0574AD2F8883023F479
:1030C0004013216B0B43C2F88830236BB3F5801F8C
:1030D00079D0236813F4006F0CD04F4AD2F88830AF
:1030E00023F44003616B0B43C2F88830636BB3F584
:1030F000800F6DD0236813F4805F0CD0464AD2F85D
:10310000883023F04073A16B0B43C2F88830A36B67
:10311000B3F1807F61D0236813F4005F0CD03E4A86
:10312000D2F8883023F04063E16B0B43C2F888305B
:10313000E36BB3F1006F55D0236813F4804F0CD0CC
:10314000354AD2F8883023F04063216C0B43C2F833
:103150008830236CB3F1006F49D0236813F4004F1B
:103160000CD02D4AD2F8883023F04053616C0B43C9
:10317000C2F88830636CB3F1805F3DD0236813F4EC
:10318000803F0CD0244AD2F8883023F04043A16C11
:103190000B43C2F88830A36CB3F1804F31D0236861
:1031A00013F4802F0CD01C4AD2F89C3023F4401327
:1031B000E16C0B43C2F89C30E36CB3F5001F25D0E3
:1031C000284603B0F0BDD36843F48013D36080E792
:1031D000D36843F48013D3608CE7D36843F480133F
:1031E000D36098E7D36843F48013D360A4E7D3682F
:1031F00043F48013D360B0E7D36843F48033D360E3
:10320000BCE7D36843F48033D360C8E7D36843F4A2
:103210008013D360D4E700BF001002407047000065
:1032200090F83D30DBB2012B3AD1022380F83D30DB
:103230000268D36843F00103D36003681B4A9342DA
:1032400020D0B3F1804F1DD0A2F59432934219D013
:1032500002F58062934215D002F58062934211D04C
:1032600002F5943293420DD002F54062934209D0A8
:1032700002F58052934205D01A6842F001021A60AA
:103280000020704799680A4A0A40062A0AD0B2F517
:10329000803F09D01A6842F001021A60002070478E
:1032A000012070470020704700207047002C01402B
:1032B00007000100704770477047704770B50546BA
:1032C0000368DE681C6914F0020F10D016F0020FBC
:1032D0000DD06FF002021A610123037703689B6926
:1032E00013F0030F7CD0FFF7E6FF00232B7714F0D9
:1032F000040F12D016F0040F0FD02B686FF00402E9
:103300001A6102232B772B689B6913F4407F6DD0E1
:103310002846FFF7D0FF00232B7714F0080F12D0B8
:1033200016F0080F0FD02B686FF008021A61042303
:103330002B772B68DB6913F0030F5ED02846FFF76D
:10334000BAFF00232B7714F0100F12D016F0100FD5
:103350000FD02B686FF010021A6108232B772B68AF
:10336000DB6913F4407F4FD02846FFF7A4FF00230A
:103370002B7714F0010F02D016F0010F4BD114F48B
:10338000025F02D016F0800F4DD114F4807F02D07E
:1033900016F0800F4FD114F0400F02D016F0400FFE
:1033A00051D114F0200F02D016F0200F53D114F495
:1033B000801F02D016F4801F55D114F4001F02D0D4
:1033C00016F4001F57D114F4800F02D016F4800FAA
:1033D00059D114F4000F02D016F4000F5BD170BD68
:1033E000FFF768FF2846FFF767FF7EE72846FFF7ED
:1033F00061FF2846FFF760FF8DE72846FFF75AFF79
:103400002846FFF759FF9CE72846FFF753FF284659
:10341000FFF752FFABE72B686FF001021A612846F5
:10342000FEF73EF9ABE72B686FF402521A612846AB
:1034300000F0E3F8A9E72B686FF480721A61284660
:1034400000F0DCF8A7E72B686FF040021A6128460D
:10345000FFF733FFA5E72B686FF020021A612846BB
:1034600000F0CAF8A3E72B686FF480121A612846AF
:1034700000F0C5F8A1E72B686FF400121A61284626
:1034800000F0BEF89FE72B686FF480021A612846AF
:1034900000F0B7F89DE72B686FF400021A61284628
:1034A00000F0B0F89BE7000003683A4A904216D05B
:1034B000B0F1804F13D0A2F5943290420FD002F5B4
:1034C000806290420BD002F58062904207D002F5F4
:1034D0009432904203D002F5E052904203D123F09F
:1034E00070034A6813432B4A904222D0B0F1804FB8
:1034F0001FD0A2F5943290421BD002F58062904218
:1035000017D002F58062904213D002F594329042B7
:103510000FD002F5406290420BD002F580629042DB
:1035200007D002F58062904203D002F5006290421B
:1035300003D123F44073CA68134323F080034A691C
:10354000134303608B68C3620B688362114B98421C
:1035500013D003F5006398420FD003F540639842FF
:103560000BD003F58063984207D003F5806398423F
:1035700003D003F50063984201D10B690363012373
:103580004361036913F0010F03D0036923F00103C2
:1035900003617047002C014060B310B5044690F8F9
:1035A0003D3013B3022384F83D30214651F8040B1B
:1035B000FFF77AFF012384F8483084F83E3084F81E
:1035C0003F3084F8403084F8413084F8423084F849
:1035D000433084F8443084F8453084F8463084F829
:1035E000473084F83D30002010BD80F83C30FFF7B4
:1035F00015FED7E701207047704770477047704746
:10360000704770477047026852E8003F23F4907398
:1036100042E800310029F6D1026802F1080353E8BC
:10362000003F23F0805323F00103083242E80031C9
:103630000029F1D1C36E012B06D02023C0F88C30B5
:103640000023C36643677047026852E8003F23F0D7
:10365000100342E800310029F6D1EEE7704708B5C3
:10366000026852E8003F23F0400342E8003100299D
:10367000F6D12023C0F8883000238367FFF7EEFFE0
:1036800008BD704708B5806A0023A0F85E30FFF7D8
:10369000F8FF08BD7047000070B504460168CB69AB
:1036A00008688D6840F60F021A4008D113F0200F09
:1036B00005D010F0200F34D115F0805F31D12AB140
:1036C000A04A2A4033D1A04E304230D1E26E012AC6
:1036D00000F0C68013F4801F03D015F4800F40F073
:1036E000738113F0800F07D010F0800F40F07381CA
:1036F00015F4000F40F06F8113F0400F03D010F06D
:10370000400F40F06F8113F4000F03D010F0804F92
:1037100040F06C8113F0807F02D00028C0F26A81F3
:1037200070BD636F002BFBD020469847F8E713F07D
:10373000010F09D010F4807F06D001260E62D4F864
:1037400090103143C4F8901013F0020F0BD015F015
:10375000010F08D0216802260E62D4F8901041F0C3
:103760000401C4F8901013F0040F0BD015F0010FF2
:1037700008D0216804260E62D4F8901041F00201AE
:10378000C4F8901013F0080F0BD010F0200F00D1E8
:103790003AB1226808211162D4F890200A43C4F893
:1037A000902013F4006F0CD010F0806F09D02268C5
:1037B0004FF400611162D4F8902042F02002C4F866
:1037C0009020D4F89020002AAAD013F0200F09D01E
:1037D00010F0200F02D115F0805F03D0636F0BB1A2
:1037E00020469847D4F8902023689B6813F0400F38
:1037F00002D112F0280F2CD02046FFF704FF2368D7
:103800009B6813F0400F20D0226802F1080353E8B0
:10381000003F23F04003083242E800310029F3D191
:10382000D4F880306BB1494A9A63D4F88000FEF72F
:10383000DFF900283FF474AFD4F88000836B984719
:103840006EE72046FFF71DFF6AE72046FFF719FFE6
:1038500066E72046FFF715FF0023C4F890305FE7C6
:1038600013F0100F3FF436AF10F0100F3FF432AFEB
:1038700010230B6223689B6813F0400F68D0D4F8C4
:1038800080100A6853689BB2002B4AD0B4F85C00E1
:10389000984246D9A4F85E300B681B6813F0200FDD
:1038A00032D1226852E8003F23F4807342E80031AD
:1038B0000029F6D1226802F1080353E8003F23F003
:1038C0000103083242E800310029F3D1226802F1F5
:1038D000080353E8003F23F04003083242E8003178
:1038E0000029F3D12023C4F88C300023E36622683A
:1038F00052E8003F23F0100342E800310029F6D1DE
:10390000D4F88000FEF73EF902232367B4F85C1078
:10391000B4F85E309BB2C91A89B22046FFF7BAFEEE
:10392000FEE6B4F85C1099427FF4FAAE136813F027
:10393000200F3FF4F5AE022323672046FFF7AAFECF
:10394000EEE600BF010000102001000485360008EB
:10395000B4F85C10B4F85E309BB2C91A89B2B4F8FE
:103960005E309BB2002B3FF4DBAE00293FF4D8AEB3
:10397000226852E8003F23F4907342E800300028A8
:10398000F6D1226802F1080353E8003F23F0805388
:1039900023F00103083242E800300028F1D120234F
:1039A000C4F88C300023E3666367226852E8003F66
:1039B00023F0100342E800300028F6D102232367E9
:1039C0002046FFF767FEABE64FF480130B622046FC
:1039D00000F0A8FFA4E6A36F002B3FF4A1AE2046A1
:1039E00098479DE62046FFF73AFE99E6204600F00C
:1039F0009BFF95E6204600F096FF91E608B5B0F8EB
:103A00006030D0F88C20222A05D00268936943F0F8
:103A10000803936108BD0268516ADBB2826D0B40F6
:103A20001370836D01338365B0F85E309BB2013B48
:103A30009BB2A0F85E30B0F85E309BB2002BE9D1AB
:103A4000026852E8003F23F4907342E800310029F5
:103A5000F6D1026802F1080353E8003F23F00103A6
:103A6000083242E800310029F3D12023C0F88C301D
:103A70000023436703670368164A93420CD05B68D0
:103A800013F4000F08D0026852E8003F23F080636F
:103A900042E800310029F6D1C36E012B16D1002374
:103AA000C366026852E8003F23F0100342E8003189
:103AB0000029F6D10368DA6912F0100F01D0102244
:103AC0001A62B0F85C10FFF7E5FDA3E700F096FF7F
:103AD000A0E700BF0080004008B5B0F86020D0F833
:103AE0008C30222B05D00268936943F00803936160
:103AF00008BD03685B6A816D13400B80836D0233E0
:103B00008365B0F85E309BB2013B9BB2A0F85E309B
:103B1000B0F85E309BB2002BEAD1026852E8003F59
:103B200023F4907342E800310029F6D1026802F1D3
:103B3000080353E8003F23F00103083242E8003154
:103B40000029F3D12023C0F88C300023436703679A
:103B50000368164A93420CD05B6813F4000F08D038
:103B6000026852E8003F23F0806342E800310029F8
:103B7000F6D1C36E012B16D10023C366026852E84A
:103B8000003F23F0100342E800310029F6D103681A
:103B9000DA6912F0100F01D010221A62B0F85C102E
:103BA000FFF778FDA4E700F029FFA1E700800040BF
:103BB0002DE9F843B0F860500368D3F81C90D3F8AF
:103BC00000809F68D0F88C20222A05D09A6942F0A4
:103BD00008029A61BDE8F8830446B0F8686008E01E
:103BE000D4F89030002B4DD1B4F85E309BB2002B4E
:103BF0004FD0002E00F0958019F0200F00F091803A
:103C00002368596AEBB2A26D0B401370A36D0133A8
:103C1000A365B4F85E309BB2013B9BB2A4F85E3062
:103C20002368D3F81C9019F0070FDDD019F0010FAD
:103C300009D018F4807F06D001221A62D4F890309F
:103C40001343C4F8903019F0020F0BD017F0010F96
:103C500008D0236802221A62D4F8903043F004039B
:103C6000C4F8903019F0040FBAD017F0010FB7D094
:103C7000236804221A62D4F8903043F00203C4F897
:103C80009030ADE72046FFF7FCFC0023C4F89030ED
:103C9000AAE7226852E8003F23F4807342E800312B
:103CA0000029F6D1226802F1080353E8003F23F00F
:103CB000805323F00103083242E800310029F1D19A
:103CC0002023C4F88C300023636723672368284AC5
:103CD00093420CD05B6813F4000F08D0226852E8BE
:103CE000003F23F0806342E800310029F6D1E36E03
:103CF000012B39D10023E366226852E8003F23F00C
:103D0000100342E800310029F6D12368DA6912F085
:103D1000100F01D010221A62B4F85C102046FFF791
:103D2000B9FCB4F85E309BB2002B3FF453AFB4F84B
:103D300068209A427FF64EAF226802F1080353E8EA
:103D4000003F23F08053083242E800310029F3D1CC
:103D5000084B6367226852E8003F43F0200342E8C3
:103D600000310029F6D135E7204600F047FED8E7BC
:103D700000800040FD3900082DE9F843B0F860509C
:103D80000368D3F81C90D3F800809F68D0F88C208B
:103D9000222A05D09A6942F008029A61BDE8F883A8
:103DA0000446B0F8686008E0D4F89030002B4CD19D
:103DB000B4F85E309BB2002B4ED0002E00F0948001
:103DC00019F0200F00F0908023685B6AA26D2B40F1
:103DD0001380A36D0233A365B4F85E309BB2013B40
:103DE0009BB2A4F85E302368D3F81C9019F0070F3B
:103DF000DED019F0010F09D018F4807F06D001221F
:103E00001A62D4F890301343C4F8903019F0020FBE
:103E10000BD017F0010F08D0236802221A62D4F8E1
:103E2000903043F00403C4F8903019F0040FBBD075
:103E300017F0010FB8D0236804221A62D4F890302A
:103E400043F00203C4F89030AEE72046FFF719FCB8
:103E50000023C4F89030ABE7226852E8003F23F417
:103E6000807342E800310029F6D1226802F108038C
:103E700053E8003F23F0805323F00103083242E867
:103E800000310029F1D12023C4F88C30002363676E
:103E900023672368284A93420CD05B6813F4000F11
:103EA00008D0226852E8003F23F0806342E80031E6
:103EB0000029F6D1E36E012B39D10023E366226895
:103EC00052E8003F23F0100342E800310029F6D108
:103ED0002368DA6912F0100F01D010221A62B4F8C8
:103EE0005C102046FFF7D6FBB4F85E309BB2002B87
:103EF0003FF454AFB4F868209A427FF64FAF22687F
:103F000002F1080353E8003F23F08053083242E8EF
:103F100000310029F3D1094B6367226852E8003F62
:103F200043F0200342E800310029F6D136E720466D
:103F300000F064FDD8E700BF00800040D93A0008D7
:103F400070B50446016883680269134342691343EC
:103F5000C26913430868964A024013430B60226803
:103F6000536823F44053E1680B435360A16922680E
:103F7000904B9A4201D0236A1943936823F06E4311
:103F800023F430630B4393602268D36A23F00F035A
:103F9000616A0B43D3622368874A934210D0874AF1
:103FA000934221D0864A934237D0864A93425CD0CE
:103FB000854A93426BD07F4A93427DD010223AE0EB
:103FC00002F55842D2F8882002F00302032A09D8E9
:103FD000DFE802F00204870601222CE004222AE036
:103FE000082228E0102226E002F5E632D2F88820E6
:103FF00002F00C020C2A0ED8DFE802F0070D0D0DBE
:10400000090D0D0D750D0D0D0B00002213E004229E
:1040100011E008220FE010220DE002F5E432D2F8A0
:10402000882002F03002202A5FD01AD8002A5ED001
:10403000102A5ED104225F498B4276D0E069B0F548
:10404000004F00F0C980082A00F23481DFE812F046
:10405000F7001901F50032011C0132013201320171
:104060001F01302A47D10822E5E702F5E232D2F8F3
:10407000882002F0C002802A3FD004D8FAB3402A38
:104080003FD10422D7E7C02A3DD10822D3E702F569
:10409000E032D2F8882002F44072B2F5007F34D0CA
:1040A00005D8A2B3B2F5807F33D10422C3E7B2F5BD
:1040B000407F30D10822BEE702F5C832D2F888200E
:1040C00002F44062B2F5006F27D005D83AB3B2F5DA
:1040D000806F26D10422AEE7B2F5406F23D10822CB
:1040E000A9E70222A7E70222A5E70222A3E700220E
:1040F000A1E710229FE710229DE702229BE7002202
:1041000099E7102297E7102295E7022293E7002211
:1041100091E710228FE710228DE702228BE7002221
:1041200089E7102287E7102285E7082A00F2B2808B
:10413000DFE802F008B03BB038B0B0B005004FF493
:10414000004004E0FEF76CFE002800F0A580626AE3
:104150001E4B33F81220B0FBF2F3656805EB450106
:10416000994200F29B80B3EB053F00F29980002654
:1041700033463146FCF788FC090241EA106100022F
:104180006B08C0182A46334641F10001FCF77CFC5D
:10419000A0F540720E4B9A4200F284802368D860EA
:1041A000304665E0FEF7F6FCCEE70A48CFE700BFF1
:1041B000F369FFCF00800040003801400044004018
:1041C00000480040004C004000500040A8C80008D3
:1041D000FFFC0F000024F400082A65D8DFE802F095
:1041E000072705642A6464640B00354803E0FEF782
:1041F00017FE00285AD0626A324B33F81230B0FBF7
:10420000F3F06268530803EB4000B0FBF2F0A0F15A
:1042100010024FF6EF739A424AD883B223F00F038D
:10422000C0F3420018432368D860002020E0FEF766
:1042300009FEDEE7FEF7AEFCDBE7214803E0FEF710
:10424000EFFD002838D0626A1E4B33F81230B0FB05
:10425000F3F0636800EB5300B0FBF3F0A0F1100241
:104260004FF6EF739A4229D8236880B2D8600020B5
:104270000123A4F86A30A4F8683000236367A367B9
:1042800070BDFEF7DFFDDCE7FEF784FCD9E74FF4F5
:104290000040D8E70120EBE70020E9E70120E7E74D
:1042A0000120E5E70120E3E70120E1E70020DFE767
:1042B0000120DDE70120DBE70020D9E70120D7E777
:1042C0000024F400A8C80008836A13F0080F06D081
:1042D0000268536823F40043816B0B435360836A85
:1042E00013F0010F06D00268536823F40033C16A4B
:1042F0000B435360836A13F0020F06D002685368C1
:1043000023F48033016B0B435360836A13F0040F73
:1043100006D00268536823F48023416B0B4353603B
:10432000836A13F0100F06D00268936823F4805359
:10433000C16B0B439360836A13F0200F06D00268B1
:10434000936823F40053016C0B439360836A13F06A
:10435000400F0AD00268536823F48013416C0B436A
:104360005360436CB3F5801F0BD0836A13F0800F4A
:1043700006D00268536823F40023C16C0B435360DA
:1043800070470268536823F4C003816C0B43536089
:10439000EBE72DE9F84305460E4617469946DDF84A
:1043A00020802C68E46936EA04030CBF4FF0010C4E
:1043B0004FF0000CBC4536D1B8F1FF3FF1D0FDF70E
:1043C0006FFBA0EB0900404530D8B8F1000F2FD0AB
:1043D0002B681A6812F0040FE3D0802EE1D0402E33
:1043E000DFD0DA6912F0080F11D1DA6912F4006F28
:1043F000D7D04FF400621A622846FFF704F9202351
:10440000C5F89030002385F8843003200CE00824A0
:104410001C622846FFF7F7F8C5F89040002385F89E
:104420008430012000E00020BDE8F8830320FBE792
:104430000320F9E72DE9F04182B01E46D0F888301C
:10444000202B5AD104460D469046002959D00AB96E
:10445000012053E00023C0F890302123C0F88830B9
:10446000FDF71EFB0746A4F85480A4F85680A36805
:10447000B3F5805F02D04FF0000816E0236943B324
:104480004FF0000811E02023C4F88830032035E005
:1044900038F8023B2268C3F308039362B4F856204D
:1044A00092B2013A92B2A4F85620B4F856309BB2B8
:1044B00093B100963B46002280212046FFF769FF1A
:1044C0000028E0D1002DE3D015F8012B23689A6273
:1044D000E4E7A8460025E8E700963B460022402195
:1044E0002046FFF756FF18B92023C4F8883005E0AE
:1044F0002023C4F88830032000E0022002B0BDE889
:10450000F0810120FAE72DE9F04383B01E46D0F890
:104510008C30202B7DD104460D46904600297CD05E
:104520000AB9012076E00023C0F890302222C0F8BA
:104530008C20C366FDF7B4FA0746A4F85C80A4F8A3
:104540005E80A368B3F5805F06D0A3B9226972B913
:10455000FF22A4F8602014E0226922B940F2FF1281
:10456000A4F860200DE0FF22A4F8602009E07F227B
:10457000A4F8602005E0B3F1805F0AD00022A4F81F
:104580006020B4F86080B3F5805F0CD04FF0000974
:1045900023E022691AB97F22A4F86020F1E73F22C4
:1045A000A4F86020EDE7236913B14FF0000914E08F
:1045B000A946002511E02023C4F88C30032029E00F
:1045C00023685B6A08EA030329F8023BB4F85E201B
:1045D00092B2013A92B2A4F85E20B4F85E309BB277
:1045E00093B100963B46002220212046FFF7D1FEE2
:1045F0000028E0D1002DE3D023685A6A5FFA88F3DF
:10460000134005F8013BE1E72023C4F88C3000207B
:1046100000E0022003B0BDE8F0830120FAE730B5E6
:1046200083B004460023C0F89030FDF739FA054600
:104630002268126812F0080F10D123681B6813F06B
:10464000040F28D12023C4F88830C4F88C3000200F
:10465000E066206784F8840003B030BD6FF07E43CD
:104660000093034600224FF400112046FFF791FE0D
:104670000028E2D0226852E8003F23F0800342E89D
:1046800000310029F6D12023C4F88830002384F8B3
:1046900084300320E0E76FF07E4300932B46002236
:1046A0004FF480012046FFF774FE0028CAD022682C
:1046B00052E8003F23F4907342E800310029F6D11C
:1046C000226802F1080353E8003F23F00103083297
:1046D00042E800310029F3D12023C4F88C300023B4
:1046E00084F884300320B7E778B310B50446D0F8D7
:1046F00088300BB32423C4F888302268136823F071
:1047000001031360A36AE3B92046FFF719FC0128EF
:1047100011D02268536823F4904353602268936851
:1047200023F02A0393602268136843F001031360A7
:104730002046FFF774FF10BD80F88430FDF708F9BC
:10474000D8E72046FFF7C0FDDEE7012070470000F4
:1047500010B48165A0F85C20A0F85E2000234367B8
:104760008368B3F5805F06D0A3B9036973B9FF23EB
:10477000A0F8603014E0036923B940F2FF13A0F8F9
:1047800060300DE0FF23A0F8603009E07F23A0F83F
:10479000603005E0B3F1805F2DD00023A0F86030D9
:1047A0000023C0F890302223C0F88C30016801F15A
:1047B000080353E8003F43F00103083141E80034A7
:1047C000002CF3D1436EB3F1005F1ED08368B3F5C4
:1047D000805F42D0294B43670369002B43D00268B6
:1047E00052E8003F43F4907342E800310029F6D1CB
:1047F000002010BC704703691BB97F23A0F860300C
:10480000CEE73F23A0F86030CAE7B0F868309342A3
:10481000DCD88368B3F5805F19D0194B436703690F
:1048200043B1026852E8003F43F4807342E800312C
:104830000029F6D1026802F1080353E8003F43F073
:104840008053083242E800310029F3D1D0E70369F0
:10485000002BE2D10B4B4367E1E70369002BB9D191
:10486000094B4367B8E7026852E8003F43F0200372
:1048700042E800310029F6D1BAE700BFFD3900084F
:10488000B13B0008793D0008D93A000838B5D0F8A6
:104890008C30202B17D1C1B1CAB10023C366036885
:1048A0000C4CA3420CD05B6813F4000F08D00468D2
:1048B00054E8003F43F0806344E80035002DF6D112
:1048C000FFF746FF00E0022038BD0120FCE7012091
:1048D000FAE700BF00800040436E2BB90123A0F827
:1048E0006A30A0F86830704730B403689A68C2F341
:1048F00042629968490F094D6B5CDB00084C615CB2
:1049000093FBF1F3A0F86A30AB5CDB00A25C93FB95
:10491000F2F3A0F8683030BC704700BFC8C8000888
:10492000C0C8000870477047704790F88430012B6A
:1049300018D0012380F884302423C0F8883003681D
:104940001A68196821F00101196022F00052002351
:10495000436601680A602022C0F8882080F884300D
:10496000184670470220704738B590F88430012B04
:104970001DD00446012380F884302423C0F88830F9
:1049800003681D681A6822F001021A6002689368C1
:1049900023F0604319439160FFF79EFF23681D6079
:1049A0002023C4F88830002084F8840038BD022019
:1049B000FCE738B590F88430012B1DD00446012364
:1049C00080F884302423C0F8883003681D681A6892
:1049D00022F001021A600268936823F060631943B1
:1049E0009160FFF779FF23681D602023C4F88830A9
:1049F000002084F8840038BD0220FCE71D4B834270
:104A000000D0704710B51C4B1988013189B219804C
:104A10004A1E1A4B1B781A488354212B0DD0174974
:104A200000230B70134C01222046FFF72FFF226852
:104A3000136843F02003136010BD124800F056F9CC
:104A4000002406E00E4B1A5D21460F4800F04EF997
:104A50000134094B1B88A342F4DC0120FCF710FD54
:104A6000C8220021064800F0EFF8034B00221A800C
:104A7000D5E700BFC80A00202A0C0020280C00201F
:104A8000600B0020D0C80008DCC800080268074B93
:104A90009A4200D0704700B58DB06B4602AA402103
:104AA000FDF75CFA0DB05DF804FB00BF0064004048
:104AB0000268074B9A4200D0704700B58DB06B4634
:104AC00002AA4121FDF74AFA0DB05DF804FB00BFD0
:104AD0000064004010B582B00B4C204600F01AF87C
:104AE00001220A492046FFF7D1FE094C2046FCF777
:104AF00045FC002100910B4640F2FF722046FCF776
:104B000056FC02B010BD00BFC80A0020280C0020CF
:104B1000140A002008B5054B1860054B18680023DF
:104B200002221946806800F04BF908BD2C0C0020C9
:104B30000C000020022801D80120704708B500F0C1
:104B400059F809230360002008BD000010B50138A2
:104B500001280AD814464FF47A7392B207480068C5
:104B6000FFF768FC40B9204610BD00F043F8092368
:104B700003604FF0FF30F7E70520F5E72C0C00202D
:104B8000022801D80020704708B500F033F8092347
:104B900003604FF0FF3008BD08B500F02BF8092383
:104BA00003604FF0FF3008BD08B548B94FF47A7381
:104BB000012208480068FFF7A6FC40B9012008BDA3
:104BC00000F018F8092303604FF0FF30F7E70520E5
:104BD000F5E700BF2C0C002008B5022804D84FF4DC
:104BE00000534B60002008BD00F004F80923036067
:104BF000F8E70000014B1868704700BF0C00002068
:104C000070B50D4E0D4D761BB61006D0002455F82C
:104C1000043B01349847A642F9D1094E094D761B51
:104C200007F018FEB61006D0002455F8043B0134F6
:104C30009847A642F9D170BD0000000000000000B6
:104C40000000000000000000830730B548D0541E6B
:104C5000002A3FD0CAB2034601E0013C3AD303F830
:104C6000012B9D07F9D1032C2DD9CDB245EA05259D
:104C70000F2C45EA054536D9A4F1100222F00F0C9D
:104C800003F1200EE6444FEA121C03F1100242E940
:104C9000045542E9025510327245F8D10CF1010277
:104CA00014F00C0F03EB021204F00F0C13D0ACF154
:104CB000040323F003030433134442F8045B9342D8
:104CC000FBD10CF003042CB1CAB21C4403F8012B35
:104CD0009C42FBD130BD64461346002CF4D1F9E769
:104CE00003461446BFE71A46A446E0E70FB400B5F2
:104CF000074983B004AB086853F8042B816801931B
:104D000001F01EF903B05DF804EB04B0704700BF7A
:104D10000C00002070B5054688B008460C46FCF72C
:104D20004FF8224EAA6B059001214318CDE9066188
:104D300004A8022104940393AC680190029122B369
:104D4000636E13F0010FB4F90C309AB201D19805DB
:104D500025D5910406D4626E43F4005322F4005228
:104D6000A3816266284601AA214604F09FF9636E7A
:104D7000002814BF4FF0FF350A25DA0702D4A389B3
:104D80009B0506D5284608B070BD284603F0A6FF4F
:104D9000D6E7A06D04F052FF284608B070BDA06DA4
:104DA00004F04AFFB4F90C309AB2D2E7F8C8000810
:104DB000024B01461868FFF7ADBF00BF0C00002092
:104DC0002DE9F043694CD4F8008083B004460E46C8
:104DD00017461D46B8F1000F03D0D8F83830002B25
:104DE00077D0022F05D0012F00F2AC80002DC0F249
:104DF000A980636EDA0752D52146404603F03AFF98
:104E0000216B41B104F14003994202D0404604F0C5
:104E100047F800232363B4F90CC000231CF0800F73
:104E2000A361636064D12CF44A6C2CF0030C022F54
:104E3000A4F80CC06AD001AB6A462146404604F093
:104E40006FFFA3891843A081002D2FD0002E2ED0F4
:104E5000D8F83830002B38D0009B2660AB42B4F92C
:104E60000C301CBF43F40063A381012F04BF43F047
:104E70000103A3819AB213F00803C4E904652CD09E
:104E8000D1075DD56D42A561656E002315F0010562
:104E9000A36027D00025284603B0BDE8F083A3898E
:104EA0009B05A9D4A06D04F0C7FEA5E7009D284688
:104EB00004F066FF0646002847D0A38943F080032C
:104EC000A381D8F83830002BC6D1404603F006FF46
:104ED000C2E7404603F002FF83E7A360656E15F06A
:104EE0000105D7D1930524D5284603B0BDE8F0834A
:104EF0002169404603F0D4FFB4F90CC02CF44A6C8D
:104F00002CF0030C022FA4F80CC094D10025002231
:104F100004F14303A2600122C4E904322360636EFA
:104F20004CF0020CD807A4F80CC0DDD41CF4007FB0
:104F3000DAD1A06D04F082FE284603B0BDE8F0830C
:104F4000A560CBE74FF0FF35CEE7DDF80090A9452F
:104F500004D0484604F014FF064620B9B4F90CC04A
:104F60004FF0FF35D3E74D46A7E700BF0C00002008
:104F70002DE9F04F1C46984B1B68A1B000258146D7
:104F80001846884608921C950493FBF719FF0021E8
:104F900083460020CDE90601CDF86C8042461746D5
:104FA00012F8013B2D2B2FD8DFE813F0A1002E00C3
:104FB0002E002E002E002E002E002E002E00AF0000
:104FC000AF00AF00AF00AF002E002E002E002E006D
:104FD0002E002E002E002E002E002E002E002E0061
:104FE0002E002E002E002E002E002E00AF002E00D0
:104FF0002E002E002E002E002E002E002E002E0041
:105000002E0006042E00FC0300220A92302B7ED0D4
:10501000002209922F2B1C4640F233854FF0000AE4
:1050200038465646554612E00130082D1B90C8BF41
:105030000AEB8A0A0478C6BF03EB4A03A3F1300ADD
:10504000A2F130062F2C05F10105234670DD06EB99
:105050008602392C03EB4202E6DD04995A4606F03B
:1050600085F90346002835D11B9A11465A441B92F4
:1050700011F80B40002D40F0AC85302C40F06485D9
:10508000C2F10101531801321B921478302CF9D06F
:10509000A4F13102082A00F23883A4F1300E1B9CDF
:1050A00003F1010B002301252746049306EB860636
:1050B0000EEB46060023621C1B926478A4F13001BB
:1050C000092900F2ED8201338E46002940F0B884B0
:1050D0001B9CF0E70023652C04959B469E4601D05F
:1050E000452C32D1002D7CD1099A1A4378D1089BE6
:1050F00013B1089BC3F800804FF0000BCDF810B03F
:105100000499584621B0BDE8F08F1B9247E77B78A1
:1051100003F0DF03582B00F0748401371B973B78B2
:10512000302BFAD0002B00F0CC800122099271E7DD
:1051300004995A4606F01AF90346002800F0D68072
:1051400004954FF0000B5B46DE4600220B92002DCB
:1051500000F09380049A1346002A08BF2B4630467D
:105160000493FBF78FF90B460246CDE906230B9B10
:10517000102DA3EB0B032C46A8BF1024092D0E9372
:1051800013DD164B03EBC40353E91223FBF7F4F9C9
:10519000CDE906015046FBF775F902460B46DDE9FD
:1051A0000601FBF733F8CDE906010F2D00F3A780C8
:1051B0000E9B002B00F018840E9B40F39283162B5D
:1051C00040F3F9840E9AC5F12503934280F20C85D1
:1051D0000E9B2C1B1C4498E0F4CB0008B8CC0008B4
:1051E0000025DDF86C8008F101021B9298F801405F
:1051F0002B2C00F087822D2C00F0218200220E92B1
:10520000A4F13002092A00F21582302C05D11B9A34
:1052100001321B921478302CFAD0A4F13102082A02
:1052200093D81B990B914A1C1B92A4F130004C7827
:105230002F2C09DC00F034BC01321B929CF8014099
:105240002F2CA1F1300006DD00EB8001392C9446B3
:1052500004EB4101F0DD0B99521A082A40F3208437
:1052600044F61F620B920E9A002A3FF470AF0B9A1D
:1052700052420B92002D7FF46DAF099A134320D157
:10528000BEF1000F7FF433AF692C00F03B8400F3D4
:105290004183492C00F036844E2C7FF428AFAC4972
:1052A0001BA804F0CBFB00283FF421AF1B9B1B780D
:1052B000282B00F06D85A74805F0F6FF8346049182
:1052C00003E04FF0000BCDF810B0089A0AB11B9B19
:1052D00013600A9B002B3FF413AF049901F10043C4
:1052E00004930499584621B0BDE8F08F1B9A0495A9
:1052F00002EB0B011B9112F80B409B46DEE60E9B66
:105300002C1B1C44002C40F30A8314F00F000AD01D
:10531000914901EBC001DDE90623D1E90001FBF76A
:105320002BF9CDE9060134F00F0340F08B82002306
:105330000993049A00962B463946484605F0F6F83C
:105340001390002800F055830B9BABEB03000E9BE2
:10535000002BB4BF024600220F9223EAE37300221F
:10536000934612939046139C4846616805F05EF898
:105370000746002800F0418122690232920004F1C0
:105380000C010C30FBF7DCFDDDE9060104910B4656
:105390001EA901911DA90B9002460091484605F0F7
:1053A00071FC1C90002800F018810121484605F08E
:1053B00065F98046002800F020811D9B002BC0F27B
:1053C0000F810F9A129D9E18099A1E9C9B1A2344C6
:1053D000624A013B9342C4F1360480F2AE80D21A95
:1053E0001F2AA4EB020400F31D814FF0010A0023E1
:1053F0000AFA02FA0C93099B25443444A6421D4440
:105400003346A8BF2346AB42A8BF2B46002B02DD84
:10541000E41AED1AF61A0F9B002B00F3BE80002C45
:1054200000F3D2800E9B002B00F3DE80002D00F3F2
:10543000EF80002E08DD41463246484605F05AFA14
:105440008046002800F0D9801C993A46484605F06D
:10545000E9FA8346002800F0D0800026C368C660C1
:105460004146109305F0BEFAB042C0F2638400F0EA
:10547000D2834146584605F067FC00224FF0804336
:1054800004460D46FBF760FE00286FD0109B002BF2
:1054900000F0E180079B1193314B314C0022CDE9A4
:1054A0000C2335462F4E119A2F4B02EA060A9A45D5
:1054B00000F0FC80099B93B1BAF1D46F0FD822A3FE
:1054C000D3E9002328462146FBF73EFE002840F0A2
:1054D00087810D9B03F1D663A3EB0A030D93049E12
:1054E0000B98DDE90C233146CDE9042305F040FBA0
:1054F00002460B46DDE90401FBF73EF833460B9A02
:10550000FAF784FECDE906010E46099B23B9154B37
:1055100033409A4500F002811C99484604F0ACFFE4
:105520003946484604F0A8FF4146484604F0A4FF27
:105530005946484604F0A0FF15E700230C934FF0AE
:10554000010A58E7AFF300800000C0FFFFFFDF4112
:1055500008C90008F4C80008B8CC000802FCFFFF26
:105560000000F03F0000F07F0000E07FAE4B2046DF
:1055700029460022FBF700F8109B024605460C4620
:10558000002B64D101F1004314901593079B1193F4
:10559000DDE91423CDE90C2384E741461A46484649
:1055A00005F048F9804640B301461C9A484605F08C
:1055B00093F810B310901C99484604F05DFF109BBF
:1055C0001C93002C7FF72EAF1C992246484605F00D
:1055D00091F91C9000287FF425AFBA465E460FE093
:1055E000129A0F9ED51AEFE63946129A484605F0F0
:1055F00021F9074600287FF419AFBA465E461C9889
:105600002223C9F80030894B04934FF0000BB4E01B
:1056100039462A46484605F06DF9074600287FF4CA
:1056200008AFEAE7824A4FF0010AD31A0AFA03F3F5
:105630000C93E0E60022CDF86C800B9287E5012206
:105640000E9208F102021B9298F80240D8E50B4630
:10565000CDE914239AE7DDE90612002940F0AF8076
:10566000C2F313031192002B40F0AF80714B002264
:1056700020462946FBF75EFD002840F0AE826A4BCB
:10568000204629460022FAF777FF01F1004305463C
:105690000C4618901993DDE91823CDE90C2301E796
:1056A000652C4FF0010E3FF49CAD19E5A2F1547347
:1056B0000793DDE90623DDE90C01CDE9060110467B
:1056C0001946CDE90C2305F053FA02460B46DDE9F5
:1056D0000601FAF751FFDDE90C23FAF797FD564A68
:1056E0000E409642CDE9060176D9049A534B9A4270
:1056F00002D10B9B013380D0504A4FF0FF33CDE9EC
:10570000063209E700220E929BE7652C00F0FB8031
:10571000452C00F0F8804FF0010EAEE528462146FA
:10572000FBF7F4FDFAF7FAFE0B460246214628463F
:10573000FAF76AFD109C069DC6F3130644EA050CB1
:105740005CEA060304460D4600F0C28032A3D3E9AA
:105750000023FBF7EFFC48B931A3D3E9002320462F
:105760002946FBF705FD00283FF4D6AEDDE90634F7
:105770001C9804945E46BA469B460146484604F08F
:105780007BFE5146484604F077FE4146484604F009
:1057900073FE1399484604F06FFE3146484604F004
:1057A0006BFE92E501230A937A1C1B927B78002BF7
:1057B0003FF49DAC174629E400230A93F4E7DDE9A2
:1057C0000612012900F0748111921D4B194C002220
:1057D000CDE90C23002565E601F15476079694E6A1
:1057E00021462846FBF70CFD012838BF0120FAF7B7
:1057F00049FE109B024605460C46002B40F069818D
:1058000001F1004316901793DDE91623CDE90C232F
:105810005FE600BFAFF300809535A094FFFFDF3F48
:1058200035E5AF350000E03F0000E03F0000F07FCD
:10583000E2FBFFFF0000F03FFFFF9F7CFFFFEF7FD9
:105840000000F0BFB3F59A7F00F3D380102B4FEA2E
:105850002314A54B40F3C682DDE90601984609935F
:1058600000239A4614F0010F0AF1010A4FEA64047A
:1058700004D0D8E90023FAF77FFE0123012C08F1B8
:105880000808EFD10BB1CDE90601099B03EBCA0172
:10589000079BA3F154730793DDE90623D1E90001C7
:1058A000FAF76AFE914BCDE906010B400A46904992
:1058B0008B4200F29E80A1F580118B4240F21C8247
:1058C0008C494FF0FF33CDE906310023099330E5D1
:1058D00083A3D3E90023FBF72DFC00283FF41CAE83
:1058E00044E71633FFF60BAD0B9BABEB0302824B89
:1058F00003EBC203DDE90601D3E90023FAF766FFF3
:1059000083460491E1E40022049293464FF0010E95
:10591000FFF7EABB6E2C3FF4C2ACFFF7E8BB3FF4E5
:1059200006AD644214F00F020AD0734B03EBC203BE
:10593000DDE90601D3E90023FAF748FFCDE90601C6
:1059400024113FF4F4AC1F2C35DC14F01003DDE916
:10595000060118BF6A23DFF8A48109930023E20738
:1059600004D5D8E90023FAF707FE0123641008F1F3
:105970000808F4D10BB1CDE90601099B93B1DDE92B
:105980000601C1F30A52C2F16B03002B0ADD1F2B83
:1059900040F350820020342B069040F356824FF0A3
:1059A0005C730793DDE9060100220023FBF7B8FBD7
:1059B00000283FF4BEAC22234FF0000BC9F80030A2
:1059C000CDF810B081E41E9B06931D9B03F2334279
:1059D0001F9B23F4801343EA02530793200742BF1F
:1059E000079B43F000430793DDE906349B4604948C
:1059F0006BE43E4A04922223C9F800304FF0000BBA
:105A000063E40A9B01931CAB029400933C4A1DABD8
:105A10001BA9484603F034FD10F0070504463FF487
:105A200050AC062D40F09380089B0137002B3FF4CB
:105A300063AB4FF0000B1F60CDF810B0FFF760BBF9
:105A40006A1C012B1B9C9B44104615D02B4403F170
:105A5000FF3C03E0460094450DD001322B46082B55
:105A6000154606EB8600F5D9102ADCBF0AEB8A0A38
:105A70004FEA4A0AEFE7981C082D5BDC0546FFF762
:105A800015BB04995A46384605F070FC002800F012
:105A9000888000231D4604939A461E46FFF751BB9B
:105AA00044F61F629042A8BF10460B90FFF7DBBB85
:105AB000DDE906341194002C7FF487AEBA465E46C9
:105AC00022234FF0000B1C98C9F80030CDF810B01D
:105AD00053E60B46CDE9162396E600BFAFF30080F0
:105AE0009535A094FFFFCF3F90CC00080000F07FD9
:105AF0000000A07CFFFFEF7FB8CC000838C9000889
